:100000000C942F020C944C020C944C020C944C0255
:100010000C944C020C94DB040C944C020C944C0297
:100020000C944C020C944C020C944C020C944C0218
:100030000C944C020C944C020C9467040C944C02EB
:100040000C944C020C944C020C944C020C944C02F8
:100050000C944C020C944C020C944C020C944C02E8
:100060000C944C020C944C020000000000000000B4
:100070000000000000000000000000000000000080
:100080000000000000000000000000000000000070
:100090000000000000000000000000000000000060
:1000A000000000000000000056044E0446043E0418
:1000B00036042E0426041E0416040E040604FE0351
:1000C000F603EE03E603DE03D603CE03C603BE0348
:1000D000B603AE03A6039E0396038E0386037E0338
:1000E00076036E0366035E0356034E0346033E0328
:1000F00036032E0326031E0316030E030603FE0219
:10010000F602EE02E602DE02D602CE02C602BE020F
:10011000B602AE02A6029E0296028E0286027E02FF
:1001200076026E0266025E0256024E0246023E02EF
:1001300036022E0226021E0216020E020602FE01E0
:10014000F601EE01E601DE01D601CE01C601BE01D7
:10015000B601AE01A6019E0196018E0186017E01C7
:1001600076016E016601007E7E7E7E7E7E00007ED0
:100170007E7E7E7E7E00007E7E7E7E7E7E00007E97
:100180007E7E7E7E7E0000000000000000000000F9
:10019000000000000000000000000000000000005F
:1001A000000000000000004242424224180000000B
:1001B000000000000000000000000000000000003F
:1001C000000000000000000000000000000000002F
:1001D000000000000000000000000000000000001F
:1001E000000000000000000000000000000000000F
:1001F00000000000000000000000000000000000FF
:1002000000000000000000000000000000000000EE
:1002100000000000000000000000000000000000DE
:10022000000000000000007E407E7E404000007E16
:10023000407E7E407E00007C424242427C00007E46
:10024000404040407E00007C427E7E427C00003C7C
:1002500042427E424200007E7E7E7E7E7E00007EA6
:100260007E7E7E7E7E00007E7E7E7E7E7E00007EA6
:100270007E7E7E7E7E00007E7E7E7E7E7E00007E96
:100280007E7E7E7E7E00007E040810207E0000427E
:100290004224181818000042241818244200004272
:1002A00042425A6642000042424242241800004242
:1002B000424242423C00007E101010101000003EEE
:1002C000402008027C00007C42427C605800003CD8
:1002D0004242523C1C00007C42427C404000003CB8
:1002E000424242423C00004262524A4642000042C0
:1002F000665A424242000040404040407E00004872
:10030000506060504800007E080808483000007EB9
:10031000181818187E000042427E7E424200003CBF
:1003200042404C423C00007E407E7E404000007EC9
:10033000407E7E407E00007C424242427C00003E85
:10034000404040403E00007C427E7E427C00003CBB
:1003500042427E424200007E7E7E7E7E7E00007EA5
:100360007E7E7E7E7E00007E7E7E7E7E7E00007EA5
:100370007E7E7E7E7E00007E7E7E7E7E7E00007E95
:100380007E7E7E7E7E000018180000181800003E59
:10039000423E02023C00003C423C3C423C00007EAB
:1003A000420408102000003C40407C423C00007E9B
:1003B000407C02027C00004040507C101000003C59
:1003C000420C0C423C00003C420408103E00001865
:1003D000280808087E00003C242424243C00000453
:1003E0000810102040000000000000181800007ED7
:1003F0007E7E7E7E7E00007E7E7E7E7E7E00007E15
:100400007E7E7E7E7E00007E7E7E7E7E7E00007E04
:100410007E7E7E7E7E00007E7E7E7E7E7E00007EF4
:100420007E7E7E7E7E00007E7E7E7E7E7E00007EE4
:100430007E7E7E7E7E00007E7E7E7E7E7E0000242E
:100440007E24247E240000282828000000000018B4
:100450001818180018000000000000000000112407
:100460001FBECFEFD8E0DEBFCDBF11E0A0E0B1E00E
:10047000E2EFFFE102C005900D92AA36B107D9F76D
:1004800021E0AAE6B1E001C01D92AE3CB207E1F75F
:100490000E94C40B0C94F70F0C9400008F929F9253
:1004A000AF92BF92CF92DF92FF920F931F93CF93A1
:1004B000DF93CDB7DEB769970FB6F894DEBF0FBEF6
:1004C000CDBF8AE0E4E1F1E0DE01119601900D92EA
:1004D0008A95E1F710E098E2A92E91E0B92E6E011D
:1004E0002BE0C20ED11C2EE1822E21E0922E86E05E
:1004F000F82ECE0145960E949A05882399F08F899F
:10050000988D009729F4115017FF0CC010E00CC013
:1005100081309105E1F0029729F41F5F153024F036
:1005200014E002C01630A9F0E12FEE0FFF0B81E0BE
:1005300090E08C0F9D1FE80FF91F6081718145E0ED
:1005400080916A0190916B010E944D0902C0F12EC9
:1005500016E092E0F916D1F19F1564F0FF2039F111
:1005600021E0F212C6CF8091C4010E94BB0B45E08E
:10057000BC0152C083E0F81609F44BC094E0F912B4
:10058000B8CF1092BF011092BE0169960FB6F894D1
:10059000DEBF0FBECDBFDF91CF911F910F91FF90B6
:1005A000DF90CF90BF90AF909F908F9008958091F3
:1005B000C2011F928F938091C3011F928F939F92CC
:1005C0008F92DF92CF920E940D0D12C08091C701D1
:1005D0001F928F938091C6011F928F938091C501C6
:1005E0001F928F93BF92AF92DF92CF920E940D0D18
:1005F00001E021E030E042E0B60180916A01909193
:100600006B010E944F080FB6F894DEBF0FBECDBF3E
:1006100012C041E067E371E080916A0190916B0143
:100620000E944D099FEF23ED80E3915020408040D0
:10063000E1F700C000001F2D5ACF0F931F93809148
:100640007601882311F10E94C9040091770110916D
:1006500078012091790130917A01DC01CB01801B76
:10066000910BA20BB30B4497A105B10570F080E08C
:1006700090E00E944C05882331F060E070E080E05B
:1006800090E00E9475051092760180917101882397
:1006900011F10E94C904009172011091730120911F
:1006A000740130917501DC01CB01801B910BA20B11
:1006B000B30B4497A105B10570F081E090E00E9472
:1006C0004C05882331F060E070E081E090E00E940A
:1006D00075051092710180916C01882311F10E94BF
:1006E000C90400916D0110916E0120916F0130914C
:1006F0007001DC01CB01801B910BA20BB30B449763
:10070000A105B10570F082E090E00E944C058823BD
:1007100031F060E070E082E090E00E947505109298
:100720006C018091C0018F5F8093C001843630F0EE
:1007300081EC91E00E94ED0A1092C0011F910F918F
:1007400008950097A1F48091760181113CC0672B38
:10075000D1F581E0809376010E94C904609377010E
:10076000709378018093790190937A010895813094
:100770009105A1F480917101811125C0672B19F5B4
:1007800081E0809371010E94C904609372017093AB
:10079000730180937401909375010895029799F401
:1007A00080916C0181110FC0672B69F481E0809307
:1007B0006C010E94C90460936D0170936E01809377
:1007C0006F0190937001089560E288E00E94740ABE
:1007D00090936B0180936A01892B11F480E0089556
:1007E0000E94D50A8823D1F31092C00181EC91E0D8
:1007F0000E94ED0A60E080916A0190916B010E9475
:10080000F4090E94630581EA93E00E943A058DE1B4
:1008100093E00E94A3040E94C00478941092BF0148
:100820001092BE0181E00895CF93DF93CDB7DEB77C
:100830002F970FB6F894DEBF0FBECDBF8EE1E82E26
:1008400081E0F82ECE0101966C01CE010B960E943C
:100850009A05882391F08D859E85019771F42091EA
:10086000BE013091BF0181E090E0232B11F080E0C8
:1008700090E09093BF018093BE018091BE01909162
:10088000BF01009729F0019701F70E944E02DDCFCA
:100890008091C2011F928F938091C3011F928F9309
:1008A000FF92EF92DF92CF920E940D0D01E021E0C6
:1008B00030E042E0B60180916A0190916B010E94A4
:1008C0004F080FB6F894DEBF0FBECDBFBECF1F924C
:1008D0000F920FB60F9211242F933F934F935F9374
:1008E0006F937F938F939F93AF93BF93EF93FF93F8
:1008F000E0917F01F0918001309709F00995809196
:100900007B0190917C01A0917D01B0917E010196C7
:10091000A11DB11D80937B0190937C01A0937D016B
:10092000B0937E01FF91EF91BF91AF919F918F9115
:100930007F916F915F914F913F912F910F900FBEDB
:100940000F901F90189524B52F7724BD24B52F7BC9
:1009500024BD24B5226024BD24B52E7F24BD25B539
:10096000277F25BD25B52B7F25BD25B5226025BD5B
:1009700025B5216025BD9093800180937F01089566
:1009800016BC89EF87BDEEE6F0E08081826080834F
:100990000895F89460917B0170917C0180917D01B4
:1009A00090917E017894089516BCEEE6F0E0808187
:1009B0008D7F808308951F920F920FB60F9211249E
:1009C0002F933F934F935F936F937F938F939F9357
:1009D000AF93BF93CF93DF93EF93FF93C9B1D091C0
:1009E000B901DC27E091B701F091B801309769F1C6
:1009F000D2FF0AC06C2F6695669581E0682761700A
:100A000070E080E090E00995D3FF0FC06C2F6695F1
:100A10006695669581E068276170E091B701F09175
:100A2000B80170E081E090E00995D4FF0EC06C2F12
:100A300062956F7081E068276170E091B701F09175
:100A4000B80170E082E090E00995C093B901FF9190
:100A5000EF91DF91CF91BF91AF919F918F917F9156
:100A60006F915F914F913F912F910F900FBE0F901B
:100A70001F901895529853985498EDE6F0E0208115
:100A80002C612083E8E6F0E02081246020839093AD
:100A9000B8018093B7010895009729F489B182FBCA
:100AA000882780F908958130910529F489B183FB65
:100AB000882780F90895029721F489B18295817081
:100AC000089580E00895E1E8F1E01086359681E030
:100AD000E33BF807D1F7109281011092820181E087
:100AE000809383011092840108959C01909181016B
:100AF0009A3041F480918201811104C081E0809399
:100B0000840102C01092840180918401811110C07F
:100B100085E0989FF0011124EF57FE4F378326831D
:100B20007583648381E080879F5F9093810108953E
:100B300080E008950F931F93CF93DF93EC014091D2
:100B40008101411108C080918201811104C081E0BE
:100B50008093830102C010928301809183018111EF
:100B600030C0209779F11092820100918501109197
:100B7000860160918701709188015091890121E877
:100B800031E090E085E0941761F0F9013996D901E0
:100B9000149601900D928A95E1F79F5F2B5F3F4F6E
:100BA000F1CF989FF0011124EF57FE4F108691501E
:100BB00090938101198308837B836A835C8381E03E
:100BC00001C080E0DF91CF911F910F91089582E5E0
:100BD0008CBD229A239A259A229A249808958EBD34
:100BE0000DB407FEFDCF08952A9A08952A98089516
:100BF0000F931F93CF93DF93EC018C01060F111D10
:100C0000C017D10721F089910E94EF05F9CFDF913C
:100C1000CF911F910F91089584EA8093BC00809139
:100C2000BC0087FFFCCF8091B900887F883051F0ED
:100C30008091B900887F803129F08091B900887F48
:100C400090E0089580E090E008958093BB0084E8F0
:100C50008093BC008091BC0087FFFCCF8091B900DD
:100C6000887F883151F08091B900887F803429F0E5
:100C70008091B900887F90E0089580E090E0089529
:100C800027B1206327B928B1662311F0206301C082
:100C90002F7C28B927B12F7C27B98130910531F0FD
:100CA00018F0029729F0089588E403C088E101C094
:100CB0008CE08093B8000895FF920F931F93CF9319
:100CC000DF93F82EEB01142F022F0E940C060097E1
:100CD00059F58F2D0E942506009731F5FE01412F11
:100CE00050E034E8CF018C1B9D0B84179507ACF4C2
:100CF00081918093BB003093BC008091BC0087FF42
:100D0000FCCF8091B900887F883261F32091B900CF
:100D1000287F822F90E031F307C0011103C084E9DE
:100D20008093BC0080E090E0DF91CF911F910F9104
:100D3000FF9008950F931F93CF93DF93D82F8B01CC
:100D4000C42F0E940C06009709F041C08D2F8160CE
:100D50000E9425060097D9F5F8016C2F70E06150CC
:100D6000710924ECCF01801B910B861797079CF427
:100D70002093BC008091BC0087FFFCCF8091B9001C
:100D8000887F803521F08091B900887F02C08091F2
:100D9000BB008193E7CFF801E60FF71F84E880934B
:100DA000BC008091BC0087FFFCCF8091B900887F98
:100DB000883521F08091B900887F02C08091BB0006
:100DC000808384E98093BC0020E090E001C0282F5C
:100DD000822FDF91CF911F910F910895FF920F9372
:100DE0001F93CF93DF93FC01672B09F442C0F12CD2
:100DF0004F2D0F2C000C550B828190E0481759079E
:100E00000CF071C08A0163E0000F111F6A95E1F7D1
:100E1000BA016F5F7F4FA3E0660F771FAA95E1F7D6
:100E200020E030E0E801C20FD31FA581B681AC0FEE
:100E3000BD1F8C91880F8C93828190E00197481799
:100E4000590781F085819681C80FD91F820F931FA2
:100E5000DC01A60FB71F8C91881F8827881F9881F7
:100E6000892B88832F5F3F4F28303105D9F6F394C3
:100E7000BFCF9281915097FD36C0292F092E000CCB
:100E8000330B890183E0000F111F8A95E1F7215090
:100E9000310943E0220F331F4A95E1F760E070E02B
:100EA000E801C60FD71FA581B681AC0FBD1F8C917D
:100EB00086958C93992389F045815681C40FD51F5F
:100EC000460F571FDA01A20FB31F4C9180E8489FCD
:100ED000A00111248881482B48836F5F7F4F6830C1
:100EE0007105F1F6C7CFDF91CF911F910F91FF9060
:100EF0000895DF92EF92FF920F931F93CF93DF93AA
:100F0000CDB7DEB70DB71EB7FC017081D72EDD0C53
:100F10008DB79EB78D1991090FB6F8949EBF0FBE7D
:100F20008DBFEDB7FEB731967F0152E030E0832FE1
:100F3000880F7317C1F090E0EFEFE50FD701A80F0E
:100F4000B91F361307C04C93C7018E0F911DFC01CA
:100F5000208306C01C92C7018E0F911DFC011082D8
:100F60003F5F5E5FE4CF0E94F4056D2DC7010E94D4
:100F7000F8050E94F6050FB6F8941EBF0FBE0DBF10
:100F8000DF91CF911F910F91FF90EF90DF90089527
:100F9000CF92DF92EF92FF920F931F93CF93DF9345
:100FA0007C01C0E06C0182E0C80ED11CF701828197
:100FB000C817C8F4F8E0CF9F80011124D0E0DF5FAC
:100FC000D7011596ED91FC911697E00FF11F208146
:100FD0004D2F6C2FC6010E9479070F5F1F4FD8302D
:100FE00071F7CF5FE3CFDF91CF911F910F91FF900A
:100FF000EF90DF90CF900895FC014281F8E04F9F81
:10100000A001112460E070E0FC01858196810C94C0
:10101000060DFC014281F8E04F9FA00111246FEF03
:1010200070E0FC01858196810C94060DCF93DF93CF
:10103000A62FA695A695A695B0E0E42FF0E0EC01CA
:101040008D819E8170E0AD01A3E0440F551FAA95EC
:10105000E1F74E0F5F1FFC01E40FF51F60957095DF
:10106000677077272130310541F401C0220F6A955E
:10107000EAF78081282B20830FC081E090E001C037
:10108000880F6A95EAF7232B21F4809590818923B4
:1010900002C0908189278083DF91CF9108952F929C
:1010A0003F924F925F926F927F928F929F92AF92F8
:1010B000BF92CF92DF92EF92FF920F931F93CF9345
:1010C000DF93CDB7DEB72D970FB6F894DEBF0FBE16
:1010D000CDBF7C016B01842E3901FB010190002002
:1010E000E9F731972F01461A570A0E94FC0712E3CD
:1010F000819E40011124A12CB12C120141E0241A3F
:101100003108B6E04B2E512CE091BC01F091BD01AD
:10111000EC0DFD1DE081F0E0EE0FFF1FE859FF4FE1
:101120006591749148E050E0CE0101960E94FD0C5B
:101130004091BC015091BD012416350608F45FC0F2
:101140008091BB018B87682F70E0F201E61BF70BE3
:10115000FA87E987DE01119620E030E0F70105808B
:10116000F681E02DFD87EC87F1E06F167104D1F474
:10117000F70182818150F90118E0819FE00DF11D96
:101180001124CF01EC85FD85E80FF91F8C91082E05
:10119000000C990B098402C0959587950A94E2F793
:1011A000817013C0EC85FD85E20FF31F8C91082E32
:1011B000000C990B062E02C0959587950A94E2F7CC
:1011C0009695982F8827979587959081892B80836E
:1011D0002F5F3F4F11962830310509F0BFCF1B8597
:1011E0001F5F173018F41093BB011FC01092BB0192
:1011F0004F5F5F4F5093BD014093BC0116C080917B
:10120000BA018F5F8093BA01F701228190E0F8E084
:101210002F9F90011124281739073CF41092BA012E
:101220001092BD011092BC010150B301C7010E9490
:10123000EE06C7010E94C807D501C4010097A105A9
:10124000B10551F0EFE9FFE03197F1F700C0000080
:101250000197A109B109F2CF011156CFC7010E9430
:10126000FC07C7010E94C8072D960FB6F894DEBF91
:101270000FBECDBFDF91CF911F910F91FF90EF90E7
:10128000DF90CF90BF90AF909F908F907F906F90A6
:101290005F904F903F902F9008955F926F927F9252
:1012A0008F929F92AF92BF92CF92DF92EF92FF9276
:1012B0000F931F93CF93DF93CDB7DEB728970FB669
:1012C000F894DEBF0FBECDBF7C018B01542EFB0115
:1012D00001900020E9F731973F01661A770A0E94D2
:1012E000FC07C12CD12CCE0101965C014E0199E086
:1012F000890E911CF7018281C81698F5D801ED91ED
:101300008D01F0E0EE0FFF1FE859FF4F65917491DA
:1013100048E050E0C5010E94FD0C9601332793E0A0
:10132000220F331F9A95E1F7F5012A193B09C901EC
:101330008E0F9F1FD70115964D915C911697DA017C
:10134000A80FB91F8191880F990B9C91892B8C93C1
:101350008E169F0661F7BFEFCB1ADB0AC614D704BF
:1013600048F210E0151539F060E070E0C7010E9406
:10137000EE061F5FF7CFC7010E94C80728960FB679
:10138000F894DEBF0FBECDBFDF91CF911F910F91BB
:10139000FF90EF90DF90CF90BF90AF909F908F9095
:1013A0007F906F905F900895EF92FF920F931F933D
:1013B000CF93DF938C01D62FC0E07C0182E0E80E52
:1013C000F11CF8018281C81740F42D2F4CE06C2FDE
:1013D000C7010E947907CF5FF4CFDF91CF911F91B2
:1013E0000F91FF90EF900895EF92FF920F931F934C
:1013F000CF93DF938C01D62FC0E07C0182E0E80E12
:10140000F11CF8018281C81740F42D2F4AE06C2F9F
:10141000C7010E947907CF5FF4CFDF91CF911F9171
:101420000F91FF90EF900895EF92FF920F931F930B
:10143000CF93DF938C01D62FC0E07C0182E0E80ED1
:10144000F11CF8018281C81740F42D2F49E06C2F60
:10145000C7010E947907CF5FF4CFDF91CF911F9131
:101460000F91FF90EF900895EF92FF920F931F93CB
:10147000CF93DF938C01D62FC0E07C0182E0E80E91
:10148000F11CF8018281C81740F42D2F4BE06C2F1E
:10149000C7010E947907CF5FF4CFDF91CF911F91F1
:1014A0000F91FF90EF900895EF92FF920F931F938B
:1014B000CF93DF938C01D62FC0E07C0182E0E80E51
:1014C000F11CF8018281C81740F42D2F4FE06C2FDA
:1014D000C7010E947907CF5FF4CFDF91CF911F91B1
:1014E0000F91FF90EF9008950F931F93CF93DF9389
:1014F000082F162F0E94E70587E090E00E94DC0B82
:10150000EC01892B19F480E090E04AC0188309832C
:101510001695169516951B830695069506950C83CC
:10152000109F002D11240A8388E0089F8001112458
:10153000C8010E94DC0B9E838D83009721F3A801D4
:1015400060E070E00E94060D61E0CE010E94D409C7
:1015500060E0CE010E94140A67E0CE010E94340AC6
:1015600061E0CE010E94540A80E090E00196853649
:10157000910539F0EFE9FFE03197F1F700C0000085
:10158000F5CF60E0CE010E94540A60E0CE010E94D7
:10159000F409CE010E94FC07CE010E94C807CE01CB
:1015A000DF91CF911F910F910895CF93DF931F92F9
:1015B000CDB7DEB7198261E082E090E00E9440067C
:1015C00020E041E0BE016F5F7F4F80ED0E945C062E
:1015D00081E00F90DF91CF9108950F931F93CF93E8
:1015E000DF93CDB7DEB728970FB6F894DEBF0FBEF6
:1015F000CDBF8C01188621E041E0BE01685F7F4FBE
:1016000080ED0E945C0647E0BE016F5F7F4F80ED7A
:101610000E949A068981982F92959F708F702AE078
:10162000929F800D1124F80180838A81982F9295D2
:101630009F708F70FAE09F9F800D1124F8018183C5
:101640008B81982F92959F708F70FAE09F9F800DED
:101650001124F80182838C81982F92959F708F704E
:10166000FAE09F9F800D1124F80183838D81982FCC
:1016700092959F708F70FAE09F9F800D1124F80162
:1016800084838E81982F92959F708F70FAE09F9F30
:10169000800D1124F80185838F81982F92959F707A
:1016A0008F70FAE09F9F800D1124F801868381E0FE
:1016B00028960FB6F894DEBF0FBECDBFDF91CF9155
:1016C0001F910F910895CF93DF93CDB7DEB7289781
:1016D0000FB6F894DEBF0FBECDBFFC01198280812A
:1016E0002AE0622F0E94D00B30E1839F900D1124DD
:1016F0009A8381810E94D00B30E1839F900D112449
:101700009B8382810E94D00B30E1839F900D112436
:101710009C8383810E94D00B30E1839F900D112424
:101720009D8384810E94D00B30E1839F900D112412
:101730009E8385810E94D00B30E1839F900D112400
:101740009F8386810E94D00B20E1829F900D1124FF
:10175000988720E048E0BE016F5F7F4F80ED0E94D8
:101760005C0681E028960FB6F894DEBF0FBECDBFB1
:10177000DF91CF910895E82FF0E0EE0FFF1FE050CA
:10178000FF4F8081918108950E94E403882329F00E
:101790000E94140480E090E008958FEF9FEF089579
:1017A000991B79E004C0991F961708F0961B881FB3
:1017B0007A95C9F7809508950F931F93CF93DF9380
:1017C0008230910510F482E090E0E091CC01F0913C
:1017D000CD0120E030E0A0E0B0E0309719F1408189
:1017E00051810281138148175907C8F08417950762
:1017F00069F4109731F012960C93129713961C937C
:1018000027C00093CC011093CD0122C021153105D2
:1018100019F04217530718F49A01BD01EF01DF01D7
:10182000F801DBCF21153105F9F0281B390B2430E5
:10183000310580F48A819B816115710521F0FB01DE
:101840009383828304C09093CD018093CC01FE01E9
:10185000329644C0FE01E20FF31F81939193225010
:101860003109398328833AC02091CA013091CB01D4
:10187000232B41F420911001309111013093CB01C1
:101880002093CA0120910E0130910F0121153105DD
:1018900041F42DB73EB74091120150911301241B22
:1018A000350BE091CA01F091CB01E217F307A0F4E8
:1018B0002E1B3F0B2817390778F0AC014E5F5F4FA6
:1018C0002417350748F04E0F5F1F5093CB0140930C
:1018D000CA018193919302C0E0E0F0E0CF01DF9173
:1018E000CF911F910F910895CF93DF93009709F443
:1018F00081C0FC01329713821282A091CC01B09179
:10190000CD01109781F420813181820F931F2091A6
:10191000CA013091CB012817390751F5F093CB015B
:10192000E093CA0167C0ED0120E030E0CE17DF0789
:1019300040F44A815B819E0141155105F1F0EA01B5
:10194000F5CFD383C28340815181840F951FC8177F
:10195000D90759F488819981840F951F0296918344
:1019600080838A819B81938382832115310529F4A9
:10197000F093CD01E093CC013DC0E901FB83EA8304
:1019800049915991C40FD51FEC17FD0761F480816F
:101990009181840F951F0296E90199838883828142
:1019A00093819B838A83E0E0F0E012968D919C9175
:1019B0001397009719F0FD01DC01F7CF8D919C91F1
:1019C00011979D012E5F3F4F820F931F2091CA01F7
:1019D0003091CB012817390769F4309729F4109218
:1019E000CD011092CC0102C013821282B093CB01C0
:1019F000A093CA01DF91CF910895FB01DC0102C0E1
:101A000005900D9241505040D8F70895DC0101C077
:101A10006D9341505040E0F70895AEE0B0E0E3E14F
:101A2000FDE00C94CE0F0D891E8986E08C831A830D
:101A300009838FEF9FE79E838D83AE01475E5F4FE3
:101A40006F89788DCE0101960E942F0DEF81F88568
:101A5000E00FF11F10822E96E4E00C94EA0FABE049
:101A6000B0E0E5E3FDE00C94C00F6C017B018A015E
:101A7000FC0117821682838181FFCCC1CE010196C1
:101A80003C01F6019381F70193FD859193FF8191CC
:101A90007F01882309F4BAC1853239F493FD859119
:101AA00093FF81917F01853229F4B60190E00E9475
:101AB000260FE7CF912C212C312CFFE1F315D8F024
:101AC0008B3279F038F4803279F08332A1F4232D0F
:101AD00020611DC08D3261F0803369F4232D2160B7
:101AE00016C0832D8260382EE32DE4603E2E2AC07E
:101AF000F32DF8601DC037FC2DC020ED280F2A30D3
:101B000040F08E32B9F436FC81C1232D2064322E90
:101B100019C036FE06C08AE0989E200D1124922E30
:101B200011C0EAE02E9E200D1124222EF32DF0622A
:101B30003F2E08C08C3621F4832D8068382E02C0D9
:101B4000883641F4F70193FD859193FF81917F01E0
:101B50008111B3CF982F9F7D9554933028F40C5F5B
:101B60001F4F9FE399830DC0833631F0833771F0A7
:101B7000833509F059C021C0F801808189830E5F47
:101B80001F4F88248394912C530113C02801F2E045
:101B90004F0E511CF801A080B18036FE03C0692DA4
:101BA00070E002C06FEF7FEFC5010E941B0F4C0178
:101BB0008201F32DFF773F2E16C0280122E0420E4E
:101BC000511CF801A080B18036FE03C0692D70E081
:101BD00002C06FEF7FEFC5010E94100F4C01F32D83
:101BE000F0683F2E820133FC1BC0822D90E08816E6
:101BF0009906B0F4B60180E290E00E94260F2A9484
:101C0000F4CFF50137FC859137FE81915F01B60174
:101C100090E00E94260F21102A9421E0821A910858
:101C20008114910471F7E8C0843611F0893641F5CA
:101C3000F80137FE07C060817181828193810C5F5A
:101C40001F4F08C060817181072E000C880B990B13
:101C50000E5F1F4FF32DFF763F2E97FF09C0909523
:101C60008095709561957F4F8F4F9F4FF0683F2E05
:101C70002AE030E0A3010E94620F882E861845C03A
:101C8000853731F4232D2F7EB22E2AE030E025C097
:101C9000932D997FB92E8F36C1F018F4883579F0DD
:101CA000B5C0803719F0883721F0B0C0E92FE06166
:101CB000BE2EB4FE0DC0FB2DF460BF2E09C034FE55
:101CC0000AC0292F2660B22E06C028E030E005C0E9
:101CD00020E130E002C020E132E0F801B7FE07C0A9
:101CE00060817181828193810C5F1F4F06C060818A
:101CF000718180E090E00E5F1F4FA3010E94620F90
:101D0000882E8618FB2DFF773F2E36FE0DC0232D23
:101D10002E7FA22E891458F434FE0BC032FC09C069
:101D2000832D8E7EA82E05C0B82CA32C03C0B82C02
:101D300001C0B92CA4FE0FC0FE01E80DF11D808189
:101D4000803321F49A2D997EA92E09C0A2FE06C0E7
:101D5000B394B39404C08A2D867809F0B394A3FC9D
:101D600011C0A0FE06C0B21488F4280C922C9B1857
:101D70000EC0B21460F4B60180E290E00E94260F1B
:101D8000B394F7CFB21418F42B1802C0982C212C5E
:101D9000A4FE10C0B60180E390E00E94260FA2FED0
:101DA00017C0A1FC03C088E790E002C088E590E07E
:101DB000B6010CC08A2D867859F0A1FE02C08BE2D4
:101DC00001C080E2A7FC8DE2B60190E00E94260FE0
:101DD000891438F4B60180E390E00E94260F9A94AB
:101DE000F7CF8A94F301E80DF11D8081B60190E0F0
:101DF0000E94260F8110F5CF222009F442CEB601B1
:101E000080E290E00E94260F2A94F6CFF6018681A8
:101E1000978102C08FEF9FEF2B96E2E10C94DC0FCD
:101E2000FC010590615070400110D8F780959095A5
:101E30008E0F9F1F0895FC016150704001900110AA
:101E4000D8F7809590958E0F9F1F08950F931F933D
:101E5000CF93DF93FB01238121FD03C08FEF9FEF21
:101E60002CC022FF16C0468157812481358142173C
:101E7000530744F4A081B1819D012F5F3F4F31830F
:101E800020838C93268137812F5F3F4F37832683B2
:101E900014C08B01EC01FB010084F185E02D099554
:101EA000892BE1F6D80116968D919C911797019692
:101EB00017969C938E931697CE01DF91CF911F9129
:101EC0000F910895FA01AA27283051F1203181F1AC
:101ED000E8946F936E7F6E5F7F4F8F4F9F4FAF4F32
:101EE000B1E03ED0B4E03CD0670F781F891F9A1F45
:101EF000A11D680F791F8A1F911DA11D6A0F711DF9
:101F0000811D911DA11D20D009F468943F912AE004
:101F1000269F11243019305D3193DEF6CF010895EC
:101F2000462F4770405D4193B3E00FD0C9F7F6CF1D
:101F3000462F4F70405D4A3318F0495D31FD4052E5
:101F4000419302D0A9F7EACFB4E0A695979587957B
:101F500077956795BA95C9F700976105710508955A
:101F60009B01AC010A2E0694579547953795279506
:101F7000BA95C9F7620F731F841F951FA01D08959E
:101F80002F923F924F925F926F927F928F929F9289
:101F9000AF92BF92CF92DF92EF92FF920F931F9377
:101FA000CF93DF93CDB7DEB7CA1BDB0B0FB6F89428
:101FB000DEBF0FBECDBF09942A88398848885F8468
:101FC0006E847D848C849B84AA84B984C884DF80D9
:101FD000EE80FD800C811B81AA81B981CE0FD11DBD
:101FE0000FB6F894DEBF0FBECDBFED010895F89493
:021FF000FFCF21
:101FF2004E01520156015A015E0162016601000062
:10200200CE0120003A013E01420146014A0125303B
:1020120032643A2530326400253032642F25303262
:10202200642F2530326400483A00434C4B0044414F
:1020320059004441540053455400455854005355E7
:102042004E004D4F4E0054554500574544005448EC
:0A2052005500465249005341540066
:00000001FF
