:100000000C9436020C9453020C9453020C94530239
:100010000C9453020C94B7060C9453020C945302A4
:100020000C9453020C9453020C9453020C945302FC
:100030000C9453020C9453020C9443060C945302F8
:100040000C9453020C9453020C9453020C945302DC
:100050000C9453020C9453020C9453020C945302CC
:100060000C9453020C94530267038603A503C40344
:10007000E50302043104000000000000000000005D
:100080000000000000000000000000000000000070
:100090000000000000000000000000000000000060
:1000A0000000000000000000000000000000000050
:1000B00000000000000064045C0454044C04440488
:1000C0003C0434042C0424041C0414040C04040410
:1000D000FC03F403EC03E403DC03D403CC03C40308
:1000E000BC03B403AC03A4039C0394038C038403F8
:1000F0007C0374036C0364035C0354034C034403E8
:100100003C0334032C0324031C0314030C030403D7
:10011000FC02F402EC02E402DC02D402CC02C402CF
:10012000BC02B402AC02A4029C0294028C028402BF
:100130007C0274026C0264025C0254024C024402AF
:100140003C0234022C0224021C0214020C0204029F
:10015000FC01F401EC01E401DC01D401CC01C40197
:10016000BC01B401AC01A4019C0194018C01840187
:100170007C017401007E7E7E7E7E7E00007E7E7E1F
:100180007E7E7E00007E7E7E7E7E7E00007E7E7E87
:100190007E7E7E00000000000000000000000000E5
:1001A000000000000000000000000000000000004F
:1001B00000000000004242424224180000000000FB
:1001C000000000000000000000000000000000002F
:1001D000000000000000000000000000000000001F
:1001E000000000000000000000000000000000000F
:1001F00000000000000000000000000000000000FF
:1002000000000000000000000000000000000000EE
:1002100000000000000000000000000000000000DE
:1002200000000000000000000000000000000000CE
:1002300000000000007E407E7E404000007E407E48
:100240007E407E00007C424242427C00007E404074
:1002500040407E00007C427E7E427C00003C424268
:100260007E424200007E7E7E7E7E7E00007E7E7E1E
:100270007E7E7E00007E7E7E7E7E7E00007E7E7E96
:100280007E7E7E00007E7E7E7E7E7E00007E7E7E86
:100290007E7E7E00007E040810207E000042422404
:1002A0001818180000422418182442000042424244
:1002B0005A66420000424242422418000042424232
:1002C00042423C00007E101010101000003E402002
:1002D00008027C00007C42427C605800003C4242A4
:1002E000523C1C00007C42427C404000003C4242A8
:1002F00042423C00004262524A4642000042665A74
:10030000424242000040404040407E000048506071
:1003100060504800007E080808483000007E181829
:1003200018187E000042427E7E424200003C42405D
:100330004C423C00007E407E7E404000007E407E7D
:100340007E407E00007C424242427C00003E4040B3
:1003500040403E00007C427E7E427C00003C4242A7
:100360007E424200007E7E7E7E7E7E00007E7E7E1D
:100370007E7E7E00007E7E7E7E7E7E00007E7E7E95
:100380007E7E7E00007E7E7E7E7E7E00007E7E7E85
:100390007E7E7E000018180000181800003E423EC5
:1003A00002023C00003C423C3C423C00007E4204D5
:1003B00008102000003C40407C423C00007E407C15
:1003C00002027C00004040507C101000003C420CB7
:1003D0000C423C00003C420408103E000018280873
:1003E00008087E00003C242424243C00000408105B
:1003F000102040000000000000181800007E7E7EE3
:100400007E7E7E00007E7E7E7E7E7E00007E7E7E04
:100410007E7E7E00007E7E7E7E7E7E00007E7E7EF4
:100420007E7E7E00007E7E7E7E7E7E00007E7E7EE4
:100430007E7E7E00007E7E7E7E7E7E00007E7E7ED4
:100440007E7E7E00007E7E7E7E7E7E0000247E2478
:10045000247E240000282828000000000018181816
:1004600018001800000000000000000011241FBE4A
:10047000CFEFD8E0DEBFCDBF11E0A0E0B1E0EEE508
:10048000F4E202C005900D92A839B107D9F722E035
:10049000A8E9B1E001C01D92A030B207E1F70E94C7
:1004A000CC0D0C942D120C9400003F924F925F9251
:1004B0006F927F928F929F92AF92BF92CF92DF9274
:1004C000EF92FF920F931F93CF93DF93CDB7DEB7D9
:1004D000E1970FB6F894DEBF0FBECDBF8AE0E4E12E
:1004E000F1E0DE011B9601900D928A95E1F710E094
:1004F000CE0101967C0131E6432E31E0532E44E6D5
:10050000842E912C5AE5C52E51E0D52E26E0722E70
:10051000CE018D960E946207882399F08FA598A935
:10052000009729F4115017FF0CC010E00CC0813067
:100530009105C1F0029729F41F5F153024F014E0F3
:1005400002C0163089F0E12FEE0FFF0BEE0DFF1DFC
:100550006285738545E080919801909199010E9490
:10056000550B02C0712E16E092E0791609F455C0C1
:100570009715DCF07720E1F121E07212C9CF80916C
:10058000F6010E94C30D45E0BC0180919801909155
:1005900099010E94550B9FEF23ED80E3915020407D
:1005A0008040E1F700C0000098C183E0781609F4AC
:1005B0005DC094E07912ACCF1092F1011092F0017D
:1005C000E1960FB6F894DEBF0FBECDBFDF91CF919D
:1005D0001F910F91FF90EF90DF90CF90BF90AF9061
:1005E0009F908F907F906F905F904F903F90089575
:1005F0008091F4011F928F938091F5011F928F9348
:100600008EE191E09F938F935E0125E1A20EB11CD4
:10061000BF92AF920E94430F18C08091F9011F92C0
:100620008F938091F8011F928F938091F7011F9211
:100630008F9388E291E09F938F935E0195E1A90EDD
:10064000B11CBF92AF920E94430F01E021E030E065
:1006500042E0B50180919801909199010E943E0A73
:100660000FB6F894DEBF0FBECDBF37C189E0E3EF10
:10067000F1E0DE015F9601900D928A95E1F700E0CE
:1006800010E03324339493E5A92E91E0B92E66242B
:100690006A94CE0188960E946207882381F08AA519
:1006A0009BA5009741F08130910539F0029739F40C
:1006B00082E0682E04C0612C02C066246394073077
:1006C000110538F7F801EC5CFF4F0C94F80D89A187
:1006D000611007C090E0019668E170E00E94E40DAF
:1006E0000BC091E0691651F022E0621209C0882324
:1006F00011F0815001C087E189A302C001E010E040
:1007000089A11F928F9387E391E05CC088A161105B
:1007100007C090E001966CE370E00E94E40D0BC00E
:1007200091E0691651F022E0621209C0882311F0AD
:10073000815001C08BE388A302C002E010E088A1D1
:100740001F928F938EE391E03DC08F8D611007C0A3
:1007500090E001966CE370E00E94E40D0BC091E024
:10076000691651F022E0621209C0882311F081500D
:1007700001C08BE38F8F02C003E010E08F8D1F92CA
:100780008F9385E491E01EC08AA1611007C090E0BC
:10079000019667E070E00E94E40D0BC091E06916DD
:1007A00051F022E0621209C0882311F0815001C08B
:1007B00086E08AA302C004E010E08AA11F928F9312
:1007C0008CE491E09F938F9339C08BA1611006C098
:1007D0008F5F803208F47DC03BA20EC091E06916A5
:1007E00049F022E0621208C0813011F0815071C0DE
:1007F0008FE16FC005E010E08BA11F928F93BF9235
:10080000AF921CC08CA1611006C08F5F8D3008F4C0
:1008100062C03CA20EC091E0691649F022E062126B
:1008200008C0813011F0815056C08CE054C006E001
:1008300010E08CA11F928F93DF92CF92FF92EF92E4
:100840000E94430F41E0B701809198019091990176
:100850000E94550B0F900F900F900F900F900F90DC
:1008600016CF611007C08DA190E00196B4010E94DF
:10087000E40D12C081E0681206C0CE014F960E94BE
:100880006B0D612C0CC092E0691207C08DA188230A
:1008900011F0815001C083E68DA3662463948DA17D
:1008A0001F928F935F924F92FF92EF920E94430F9D
:1008B00041E0B70180919801909199010E94550BF8
:1008C0000F900F900F900F900F900F906110DFCE50
:1008D00004C08BA391CF8CA3ACCF172D17CE0F9351
:1008E0001F938091A801882311F10E94A506009111
:1008F000A9011091AA012091AB013091AC01DC015A
:10090000CB01801B910BA20BB30B4497A105B10542
:1009100070F080E090E00E942807882331F060E0CA
:1009200070E080E090E00E94B3071092A8018091EF
:10093000A301882311F10E94A5060091A401109142
:10094000A5012091A6013091A701DC01CB01801BFC
:10095000910BA20BB30B4497A105B10570F081E098
:1009600090E00E942807882331F060E070E081E089
:1009700090E00E94B3071092A30180919E0188230A
:1009800011F10E94A50600919F011091A0012091F4
:10099000A1013091A201DC01CB01801B910BA20BC4
:1009A000B30B4497A105B10570F082E090E00E947E
:1009B0002807882331F060E070E082E090E00E9438
:1009C000B30710929E018091F2018F5F8093F20134
:1009D000843630F083EF91E00E94F50C1092F20122
:1009E0001F910F9108950097A1F48091A8018111A2
:1009F0003CC0672BD1F581E08093A8010E94A50639
:100A00006093A9017093AA018093AB019093AC010C
:100A1000089581309105A1F48091A301811125C031
:100A2000672B19F581E08093A3010E94A5066093CE
:100A3000A4017093A5018093A6019093A701089546
:100A4000029799F480919E0181110FC0672B69F480
:100A500081E080939E010E94A50660939F017093A0
:100A6000A0018093A1019093A201089560E288E023
:100A70000E947C0C9093990180939801892B11F42A
:100A800080E008950E94DD0C8823D1F31092F201DA
:100A900083EF91E00E94F50C60E0809198019091C5
:100AA00099010E94FC0B0E943F0783EF94E00E9493
:100AB00016078FE694E00E947F060E949C067894B9
:100AC0001092F1011092F00181E00895CF93DF932D
:100AD000CDB7DEB72F970FB6F894DEBF0FBECDBFF0
:100AE0008EE1C82E81E0D82ECE0101967C0198E2DD
:100AF000A92E91E0B92ECE010B960E9462078823A1
:100B000059F18D859E858130910549F48091F001E0
:100B10009091F101892BD1F483E090E019C08D7F91
:100B2000892BD1F48091F0019091F101019690937D
:100B3000F1018093F0018091F0019091F101039710
:100B400029F08091F0019091F10102C080E090E0E5
:100B50009093F1018093F0018091F0019091F10167
:100B60008130910521F148F08230910509F464C08B
:100B7000039709F60E945502BECF8091F4011F929F
:100B80008F938091F5011F928F93DF92CF92FF9206
:100B9000EF920E94430F01E021E030E042E0B70114
:100BA00080919801909199010E943E0A66C08091BF
:100BB000F6010E94C30D45E0BC018091980190911F
:100BC00099010E94550B80919A0190919B01A091EF
:100BD0009C01B0919D01892B8A2B8B2B51F40E9493
:100BE000A50660939A0170939B0180939C0190935A
:100BF0009D010E94A50600919A0110919B012091F0
:100C00009C0130919D01DC01CB01801B910BA20B5B
:100C1000B30B8C3D9540A105B10508F46CCF109243
:100C2000F1011092F00110929A0110929B01109222
:100C30009C0110929D015FCF8091F9011F928F93CB
:100C40008091F8011F928F938091F7011F928F93EB
:100C5000BF92AF92FF92EF920E94430F01E021E01A
:100C600030E042E0B70180919801909199010E9493
:100C70003E0A1092F1011092F0010FB6F894DEBF17
:100C80000FBECDBF38CF1F920F920FB60F92112417
:100C90002F933F934F935F936F937F938F939F9384
:100CA000AF93BF93EF93FF93E091B101F091B20145
:100CB000309709F009958091AD019091AE01A09116
:100CC000AF01B091B0010196A11DB11D8093AD019E
:100CD0009093AE01A093AF01B093B001FF91EF915B
:100CE000BF91AF919F918F917F916F915F914F9144
:100CF0003F912F910F900FBE0F901F90189524B524
:100D00002F7724BD24B52F7B24BD24B5226024BDBC
:100D100024B52E7F24BD25B5277F25BD25B52B7F86
:100D200025BD25B5226025BD25B5216025BD909343
:100D3000B2018093B101089516BC89EF87BDEEE63C
:100D4000F0E08081826080830895F8946091AD0125
:100D50007091AE018091AF019091B00178940895A7
:100D600016BCEEE6F0E080818D7F808308951F92AF
:100D70000F920FB60F9211242F933F934F935F93CF
:100D80006F937F938F939F93AF93BF93CF93DF9393
:100D9000EF93FF93C9B1D091EB01DC27E091E9011A
:100DA000F091EA01309769F1D2FF0AC06C2F669585
:100DB000669581E06827617070E080E090E00995B9
:100DC000D3FF0FC06C2F66956695669581E0682706
:100DD0006170E091E901F091EA0170E081E090E05A
:100DE0000995D4FF0EC06C2F62956F7081E0682763
:100DF0006170E091E901F091EA0170E082E090E039
:100E00000995C093EB01FF91EF91DF91CF91BF91D5
:100E1000AF919F918F917F916F915F914F913F9192
:100E20002F910F900FBE0F901F90189552985398C6
:100E30005498EDE6F0E020812C612083E8E6F0E0B4
:100E40002081246020839093EA018093E901089532
:100E5000009729F489B182FB882780F908958130B1
:100E6000910529F489B183FB882780F908950297B9
:100E700021F489B182958170089580E00895E3EBB3
:100E8000F1E01086359681E0E53EF807D1F7109243
:100E9000B3011092B40181E08093B5011092B601C4
:100EA00008958091B301811108C08091B40181112E
:100EB00004C081E08093B50102C01092B501809119
:100EC000B50108950F931F93CF93DF93EC010E9418
:100ED0005107811131C05091B301209771F11092E7
:100EE000B4010091B7011091B8016091B9017091FE
:100EF000BA014091BB0123EB31E095E0851761F029
:100F0000F9013996D901149601900D929A95E1F75D
:100F10008F5F2B5F3F4FF1CF899FF0011124ED547C
:100F2000FE4F108681508093B301198308837B8321
:100F30006A834C8381E001C080E0DF91CF911F91F3
:100F40000F9108958091B3018A3041F48091B401EA
:100F5000811104C081E08093B60102C01092B601F5
:100F60008091B60108950F931F93CF93DF938C0167
:100F7000EB010E94A207811113C08091B30195E09B
:100F8000899FF0011124ED54FE4F17830683D5830A
:100F9000C48391E090878F5F8093B30181E001C0AB
:100FA00080E0DF91CF911F910F91089582E58CBD74
:100FB000229A239A259A229A249808958EBD0DB4D8
:100FC00007FEFDCF08952A9A08952A9808950F9351
:100FD0001F93CF93DF93EC018C01060F111DC017F7
:100FE000D10721F089910E94DE07F9CFDF91CF91DF
:100FF0001F910F91089584EA8093BC008091BC00FA
:1010000087FFFCCF8091B900887F883051F08091B4
:10101000B900887F803129F08091B900887F90E005
:10102000089580E090E008958093BB0084E8809369
:10103000BC008091BC0087FFFCCF8091B900887F05
:10104000883151F08091B900887F803429F08091F7
:10105000B900887F90E0089580E090E0089527B17E
:10106000206327B928B1662311F0206301C02F7CCB
:1010700028B927B12F7C27B98130910531F018F0BC
:10108000029729F0089588E403C088E101C08CE04C
:101090008093B8000895FF920F931F93CF93DF932F
:1010A000F82EEB01142F022F0E94FB07009759F531
:1010B0008F2D0E941408009731F5FE01412F50E05A
:1010C00034E8CF018C1B9D0B84179507ACF48191FC
:1010D0008093BB003093BC008091BC0087FFFCCFA5
:1010E0008091B900887F883261F32091B900287F10
:1010F000822F90E031F307C0011103C084E980938F
:10110000BC0080E090E0DF91CF911F910F91FF90A4
:1011100008950F931F93CF93DF93D82F8B01C42F84
:101120000E94FB07009709F041C08D2F81600E944B
:1011300014080097D9F5F8016C2F70E0615071091F
:1011400024ECCF01801B910B861797079CF420930A
:10115000BC008091BC0087FFFCCF8091B900887FE4
:10116000803521F08091B900887F02C08091BB005A
:101170008193E7CFF801E60FF71F84E88093BC0066
:101180008091BC0087FFFCCF8091B900887F8835B3
:1011900021F08091B900887F02C08091BB008083DC
:1011A00084E98093BC0020E090E001C0282F822FCA
:1011B000DF91CF911F910F910895FF920F931F938D
:1011C000CF93DF93FC01672B09F442C0F12C4F2D24
:1011D0000F2C000C550B828190E0481759070CF03A
:1011E00071C08A0163E0000F111F6A95E1F7BA012F
:1011F0006F5F7F4FA3E0660F771FAA95E1F720E0AE
:1012000030E0E801C20FD31FA581B681AC0FBD1F2E
:101210008C91880F8C93828190E001974817590731
:1012200081F085819681C80FD91F820F931FDC0141
:10123000A60FB71F8C91881F8827881F9881892B3C
:1012400088832F5F3F4F28303105D9F6F394BFCF05
:101250009281915097FD36C0292F092E000C330B37
:10126000890183E0000F111F8A95E1F721503109B0
:1012700043E0220F331F4A95E1F760E070E0E80198
:10128000C60FD71FA581B681AC0FBD1F8C91869567
:101290008C93992389F045815681C40FD51F460F41
:1012A000571FDA01A20FB31F4C9180E8489FA0019D
:1012B00011248881482B48836F5F7F4F6830710508
:1012C000F1F6C7CFDF91CF911F910F91FF90089555
:1012D000DF92EF92FF920F931F93CF93DF93CDB7DF
:1012E000DEB70DB71EB7FC017081D72EDD0C8DB7B0
:1012F0009EB78D1991090FB6F8949EBF0FBE8DBF92
:10130000EDB7FEB731967F0152E030E0832F880FB2
:101310007317C1F090E0EFEFE50FD701A80FB91FE9
:10132000361307C04C93C7018E0F911DFC0120831B
:1013300006C01C92C7018E0F911DFC0110823F5FF9
:101340005E5FE4CF0E94E3076D2DC7010E94E707AF
:101350000E94E5070FB6F8941EBF0FBE0DBFDF91C8
:10136000CF911F910F91FF90EF90DF900895CF9252
:10137000DF92EF92FF920F931F93CF93DF937C0145
:10138000C0E06C0182E0C80ED11CF7018281C81751
:10139000C8F4F8E0CF9F80011124D0E0DF5FD701CF
:1013A0001596ED91FC911697E00FF11F20814D2FBE
:1013B0006C2FC6010E9468090F5F1F4FD83071F76C
:1013C000CF5FE3CFDF91CF911F910F91FF90EF900F
:1013D000DF90CF900895FC014281F8E04F9FA0017B
:1013E000112460E070E0FC01858196810C943C0F33
:1013F000FC014281F8E04F9FA00111246FEF70E0E3
:10140000FC01858196810C943C0FCF93DF93A62F2E
:10141000A695A695A695B0E0E42FF0E0EC018D81AD
:101420009E8170E0AD01A3E0440F551FAA95E1F73E
:101430004E0F5F1FFC01E40FF51F609570956770FC
:1014400077272130310541F401C0220F6A95EAF770
:101450008081282B20830FC081E090E001C0880F9D
:101460006A95EAF7232B21F480959081892302C0A5
:10147000908189278083DF91CF9108952F923F92A9
:101480004F925F926F927F928F929F92AF92BF9294
:10149000CF92DF92EF92FF920F931F93CF93DF9340
:1014A000CDB7DEB72D970FB6F894DEBF0FBECDBF18
:1014B0007C016B01842E3901FB0101900020E9F7CA
:1014C00031972F01461A570A0E94EB0912E3819EB9
:1014D00040011124A12CB12C120141E0241A310841
:1014E000B6E04B2E512C0E945107811109C0109279
:1014F000EC011092EE011092ED011092EF01AAC0E2
:10150000E091ED01F091EE01EC0DFD1DE081F0E0C8
:10151000EE0FFF1FEA58FF4F6591749148E050E0CD
:10152000CE0101960E94330F4091ED015091EE01E2
:101530002416350608F45FC08091EC018B87682F74
:1015400070E0F201E61BF70BFA87E987DE011196DE
:1015500020E030E0F7010580F681E02DFD87EC8783
:10156000F1E06F167104D1F4F70182818150F90125
:1015700018E0819FE00DF11D1124CF01EC85FD8560
:10158000E80FF91F8C91082E000C990B098402C0FA
:10159000959587950A94E2F7817013C0EC85FD85D7
:1015A000E20FF31F8C91082E000C990B062E02C03F
:1015B000959587950A94E2F79695982F88279795A1
:1015C00087959081892B80832F5F3F4F119628301C
:1015D000310509F0BFCF1B851F5F173018F410933A
:1015E000EC011FC01092EC014F5F5F4F5093EE0172
:1015F0004093ED0116C08091EF018F5F8093EF0162
:10160000F701228190E0F8E02F9F90011124281724
:1016100039073CF41092EF011092EE011092ED01A7
:101620000150B301C7010E94DD08C7010E94B7093C
:10163000D501C4010097A105B10551F0EFE9FFE024
:101640003197F1F700C000000197A109B109F2CF6D
:10165000011149CF0E945107811108C01092EC017D
:101660001092EE011092ED011092EF01C7010E945D
:10167000EB09C7010E94B7092D960FB6F894DEBF9B
:101680000FBECDBFDF91CF911F910F91FF90EF90D3
:10169000DF90CF90BF90AF909F908F907F906F9092
:1016A0005F904F903F902F9008955F926F927F923E
:1016B0008F929F92AF92BF92CF92DF92EF92FF9262
:1016C0000F931F93CF93DF93CDB7DEB728970FB655
:1016D000F894DEBF0FBECDBF7C018B01542EFB0101
:1016E00001900020E9F731973F01661A770A0E94BE
:1016F000EB09C12CD12CCE0101965C014E0199E081
:10170000890E911CF7018281C81698F5D801ED91D8
:101710008D01F0E0EE0FFF1FEA58FF4F65917491C5
:1017200048E050E0C5010E94330F9601332793E053
:10173000220F331F9A95E1F7F5012A193B09C901D8
:101740008E0F9F1FD70115964D915C911697DA0168
:10175000A80FB91F8191880F990B9C91892B8C93AD
:101760008E169F0661F7BFEFCB1ADB0AC614D704AB
:1017700048F210E0151539F060E070E0C7010E94F2
:10178000DD081F5FF7CFC7010E94B70928960FB683
:10179000F894DEBF0FBECDBFDF91CF911F910F91A7
:1017A000FF90EF90DF90CF90BF90AF909F908F9081
:1017B0007F906F905F900895EF92FF920F931F9329
:1017C000CF93DF938C01D62FC0E07C0182E0E80E3E
:1017D000F11CF8018281C81740F42D2F4CE06C2FCA
:1017E000C7010E946809CF5FF4CFDF91CF911F91AD
:1017F0000F91FF90EF900895EF92FF920F931F9338
:10180000CF93DF938C01D62FC0E07C0182E0E80EFD
:10181000F11CF8018281C81740F42D2F4AE06C2F8B
:10182000C7010E946809CF5FF4CFDF91CF911F916C
:101830000F91FF90EF900895EF92FF920F931F93F7
:10184000CF93DF938C01D62FC0E07C0182E0E80EBD
:10185000F11CF8018281C81740F42D2F49E06C2F4C
:10186000C7010E946809CF5FF4CFDF91CF911F912C
:101870000F91FF90EF900895EF92FF920F931F93B7
:10188000CF93DF938C01D62FC0E07C0182E0E80E7D
:10189000F11CF8018281C81740F42D2F4BE06C2F0A
:1018A000C7010E946809CF5FF4CFDF91CF911F91EC
:1018B0000F91FF90EF900895EF92FF920F931F9377
:1018C000CF93DF938C01D62FC0E07C0182E0E80E3D
:1018D000F11CF8018281C81740F42D2F4FE06C2FC6
:1018E000C7010E946809CF5FF4CFDF91CF911F91AC
:1018F0000F91FF90EF9008950F931F93CF93DF9375
:10190000082F162F0E94D60787E090E00E94120E43
:10191000EC01892B19F480E090E04AC01883098318
:101920001695169516951B830695069506950C83B8
:10193000109F002D11240A8388E0089F8001112444
:10194000C8010E94120E9E838D83009721F3A80187
:1019500060E070E00E943C0F61E0CE010E94DC0B71
:1019600060E0CE010E941C0C67E0CE010E943C0C9E
:1019700061E0CE010E945C0C80E090E0019685362B
:10198000910539F0EFE9FFE03197F1F700C0000071
:10199000F5CF60E0CE010E945C0C60E0CE010E94B9
:1019A000FC0BCE010E94EB09CE010E94B709CE01CB
:1019B000DF91CF911F910F910895CF93DF931F92E5
:1019C000CDB7DEB7198261E082E090E00E942F0877
:1019D00020E041E0BE016F5F7F4F80ED0E944B0829
:1019E00081E00F90DF91CF9108950F931F93CF93D4
:1019F000DF93CDB7DEB728970FB6F894DEBF0FBEE2
:101A0000CDBF8C01188621E041E0BE01685F7F4FA9
:101A100080ED0E944B0847E0BE016F5F7F4F80ED75
:101A20000E9489088981982F92959F708F702AE073
:101A3000929F800D1124F80180838A81982F9295BE
:101A40009F708F70FAE09F9F800D1124F8018183B1
:101A50008B81982F92959F708F70FAE09F9F800DD9
:101A60001124F80182838C81982F92959F708F703A
:101A7000FAE09F9F800D1124F80183838D81982FB8
:101A800092959F708F70FAE09F9F800D1124F8014E
:101A900084838E81982F92959F708F70FAE09F9F1C
:101AA000800D1124F80185838F81982F92959F7066
:101AB0008F70FAE09F9F800D1124F801868381E0EA
:101AC00028960FB6F894DEBF0FBECDBFDF91CF9141
:101AD0001F910F910895CF93DF93CDB7DEB728976D
:101AE0000FB6F894DEBF0FBECDBFFC011982808116
:101AF0002AE0622F0E94D80D30E1839F900D1124BF
:101B00009A8381810E94D80D30E1839F900D11242A
:101B10009B8382810E94D80D30E1839F900D112418
:101B20009C8383810E94D80D30E1839F900D112406
:101B30009D8384810E94D80D30E1839F900D1124F4
:101B40009E8385810E94D80D30E1839F900D1124E2
:101B50009F8386810E94D80D20E1829F900D1124E1
:101B6000988720E048E0BE016F5F7F4F80ED0E94C4
:101B70004B0881E028960FB6F894DEBF0FBECDBFAC
:101B8000DF91CF910895E82FF0E0EE0FFF1FE050B6
:101B9000FF4F8081918108950E943605882329F0A6
:101BA0000E94660580E090E008958FEF9FEF089512
:101BB000991B79E004C0991F961708F0961B881F9F
:101BC0007A95C9F78095089597FB072E16F400942F
:101BD00007D077FD09D00E94FE0D07FC05D03EF42A
:101BE000909581959F4F0895709561957F4F0895C9
:101BF000EE0FFF1F0590F491E02D0994AA1BBB1B6B
:101C000051E107C0AA1FBB1FA617B70710F0A61BFC
:101C1000B70B881F991F5A95A9F780959095BC011D
:101C2000CD0108950F931F93CF93DF9382309105D9
:101C300010F482E090E0E091FE01F091FF0120E0DD
:101C400030E0A0E0B0E0309719F14081518102818D
:101C5000138148175907C8F08417950769F410973E
:101C600031F012960C93129713961C9327C0009391
:101C7000FE011093FF0122C02115310519F0421712
:101C8000530718F49A01BD01EF01DF01F801DBCF22
:101C900021153105F9F0281B390B2430310580F46A
:101CA0008A819B816115710521F0FB0193838283F9
:101CB00004C09093FF018093FE01FE01329644C060
:101CC000FE01E20FF31F8193919322503109398372
:101CD00028833AC02091FC013091FD01232B41F46F
:101CE00020911001309111013093FD012093FC01EE
:101CF00020910E0130910F012115310541F42DB7CE
:101D00003EB74091120150911301241B350BE09115
:101D1000FC01F091FD01E217F307A0F42E1B3F0B2D
:101D20002817390778F0AC014E5F5F4F241735074D
:101D300048F04E0F5F1F5093FD014093FC018193CB
:101D4000919302C0E0E0F0E0CF01DF91CF911F91CD
:101D50000F910895CF93DF93009709F481C0FC01A0
:101D6000329713821282A091FE01B091FF01109769
:101D700081F420813181820F931F2091FC013091E9
:101D8000FD012817390751F5F093FD01E093FC019F
:101D900067C0ED0120E030E0CE17DF0740F44A8154
:101DA0005B819E0141155105F1F0EA01F5CFD38326
:101DB000C28340815181840F951FC817D90759F4F8
:101DC00088819981840F951F0296918380838A81EF
:101DD0009B81938382832115310529F4F093FF01C0
:101DE000E093FE013DC0E901FB83EA8349915991EB
:101DF000C40FD51FEC17FD0761F480819181840F1A
:101E0000951F0296E90199838883828193819B8340
:101E10008A83E0E0F0E012968D919C9113970097F1
:101E200019F0FD01DC01F7CF8D919C9111979D0177
:101E30002E5F3F4F820F931F2091FC013091FD01D7
:101E40002817390769F4309729F41092FF0110928E
:101E5000FE0102C013821282B093FD01A093FC0127
:101E6000DF91CF910895FB01DC0102C005900D9236
:101E700041505040D8F70895DC0101C06D934150A6
:101E80005040E0F70895AEE0B0E0E9E4FFE00C94E4
:101E900004120D891E8986E08C831A8309838FEFD3
:101EA0009FE79E838D83AE01475E5F4F6F89788D7C
:101EB000CE0101960E94650FEF81F885E00FF11FBA
:101EC00010822E96E4E00C942012ABE0B0E0EBE63A
:101ED000FFE00C94F6116C017B018A01FC01178272
:101EE0001682838181FFCCC1CE0101963C01F601AF
:101EF0009381F70193FD859193FF81917F01882361
:101F000009F4BAC1853239F493FD859193FF81912B
:101F10007F01853229F4B60190E00E945C11E7CF81
:101F2000912C212C312CFFE1F315D8F08B3279F074
:101F300038F4803279F08332A1F4232D20611DC062
:101F40008D3261F0803369F4232D216016C0832D1A
:101F50008260382EE32DE4603E2E2AC0F32DF86017
:101F60001DC037FC2DC020ED280F2A3040F08E32E6
:101F7000B9F436FC81C1232D2064322E19C036FEFF
:101F800006C08AE0989E200D1124922E11C0EAE02E
:101F90002E9E200D1124222EF32DF0623F2E08C01C
:101FA0008C3621F4832D8068382E02C0883641F4A7
:101FB000F70193FD859193FF81917F018111B3CF4B
:101FC000982F9F7D9554933028F40C5F1F4F9FE30B
:101FD00099830DC0833631F0833771F0833509F072
:101FE00059C021C0F801808189830E5F1F4F88246A
:101FF0008394912C530113C02801F2E04F0E511C21
:10200000F801A080B18036FE03C0692D70E002C0E7
:102010006FEF7FEFC5010E9451114C018201F32D3A
:10202000FF773F2E16C0280122E0420E511CF80116
:10203000A080B18036FE03C0692D70E002C06FEF52
:102040007FEFC5010E9446114C01F32DF0683F2E31
:10205000820133FC1BC0822D90E088169906B0F4F3
:10206000B60180E290E00E945C112A94F4CFF50161
:1020700037FC859137FE81915F01B60190E00E94A7
:102080005C1121102A9421E0821A91088114910494
:1020900071F7E8C0843611F0893641F5F80137FE52
:1020A00007C060817181828193810C5F1F4F08C0DE
:1020B00060817181072E000C880B990B0E5F1F4FFA
:1020C000F32DFF763F2E97FF09C090958095709570
:1020D00061957F4F8F4F9F4FF0683F2E2AE030E091
:1020E000A3010E949811882E861845C0853731F4C7
:1020F000232D2F7EB22E2AE030E025C0932D997F2C
:10210000B92E8F36C1F018F4883579F0B5C0803714
:1021100019F0883721F0B0C0E92FE061BE2EB4FE7F
:102120000DC0FB2DF460BF2E09C034FE0AC0292F5C
:102130002660B22E06C028E030E005C020E130E085
:1021400002C020E132E0F801B7FE07C06081718172
:10215000828193810C5F1F4F06C06081718180E096
:1021600090E00E5F1F4FA3010E949811882E8618E1
:10217000FB2DFF773F2E36FE0DC0232D2E7FA22E86
:10218000891458F434FE0BC032FC09C0832D8E7EB6
:10219000A82E05C0B82CA32C03C0B82C01C0B92CA4
:1021A000A4FE0FC0FE01E80DF11D8081803321F4F3
:1021B0009A2D997EA92E09C0A2FE06C0B394B394AD
:1021C00004C08A2D867809F0B394A3FC11C0A0FE48
:1021D00006C0B21488F4280C922C9B180EC0B214BE
:1021E00060F4B60180E290E00E945C11B394F7CFF6
:1021F000B21418F42B1802C0982C212CA4FE10C085
:10220000B60180E390E00E945C11A2FE17C0A1FC21
:1022100003C088E790E002C088E590E0B6010CC0FA
:102220008A2D867859F0A1FE02C08BE201C080E2BF
:10223000A7FC8DE2B60190E00E945C11891438F48D
:10224000B60180E390E00E945C119A94F7CF8A94E3
:10225000F301E80DF11D8081B60190E00E945C1150
:102260008110F5CF222009F442CEB60180E290E041
:102270000E945C112A94F6CFF6018681978102C0F4
:102280008FEF9FEF2B96E2E10C941212FC01059068
:10229000615070400110D8F7809590958E0F9F1F68
:1022A0000895FC016150704001900110D8F78095AD
:1022B00090958E0F9F1F08950F931F93CF93DF93D9
:1022C000FB01238121FD03C08FEF9FEF2CC022FF74
:1022D00016C046815781248135814217530744F443
:1022E000A081B1819D012F5F3F4F318320838C936B
:1022F000268137812F5F3F4F3783268314C08B01A0
:10230000EC01FB010084F185E02D0995892BE1F6B4
:10231000D80116968D919C911797019617969C93CC
:102320008E931697CE01DF91CF911F910F91089553
:10233000FA01AA27283051F1203181F1E8946F93F6
:102340006E7F6E5F7F4F8F4F9F4FAF4FB1E03ED09C
:10235000B4E03CD0670F781F891F9A1FA11D680F3A
:10236000791F8A1F911DA11D6A0F711D811D911D6D
:10237000A11D20D009F468943F912AE0269F1124E2
:102380003019305D3193DEF6CF010895462F477046
:10239000405D4193B3E00FD0C9F7F6CF462F4F70A1
:1023A000405D4A3318F0495D31FD4052419302D0FF
:1023B000A9F7EACFB4E0A6959795879577956795A5
:1023C000BA95C9F700976105710508959B01AC01A5
:1023D0000A2E06945795479537952795BA95C9F7CC
:1023E000620F731F841F951FA01D08952F923F92A7
:1023F0004F925F926F927F928F929F92AF92BF9215
:10240000CF92DF92EF92FF920F931F93CF93DF93C0
:10241000CDB7DEB7CA1BDB0B0FB6F894DEBF0FBE1D
:10242000CDBF09942A88398848885F846E847D846A
:102430008C849B84AA84B984C884DF80EE80FD806C
:102440000C811B81AA81B981CE0FD11D0FB6F894E2
:0E245000DEBF0FBECDBFED010895F894FFCFA3
:10245E007C018001840188018C01900194010000AF
:10246E000002200068016C017001740178012530B2
:10247E0032643A2530326400253032642F253032F2
:10248E00642F2530326400483A25303264004D3ACC
:10249E002530326400533A2530326400573A2530E5
:1024AE00326400444425303264004D4D2530326490
:1024BE000059592530326400434C4B0044415900B9
:1024CE0044415400534554004558540053554E0052
:1024DE004D4F4E0054554500574544005448550045
:0824EE0046524900534154001D
:00000001FF
