:100000000C9436020C9453020C9453020C94530239
:100010000C9453020C94C5060C9453020C94530296
:100020000C9453020C9453020C9453020C945302FC
:100030000C9453020C9453020C9451060C945302EA
:100040000C9453020C9453020C9453020C945302DC
:100050000C9453020C9453020C9453020C945302CC
:100060000C9453020C945302F802180338035803FB
:100070007A039803C803000000000000000000009D
:100080000000000000000000000000000000000070
:100090000000000000000000000000000000000060
:1000A0000000000000000000000000000000000050
:1000B00000000000000064045C0454044C04440488
:1000C0003C0434042C0424041C0414040C04040410
:1000D000FC03F403EC03E403DC03D403CC03C40308
:1000E000BC03B403AC03A4039C0394038C038403F8
:1000F0007C0374036C0364035C0354034C034403E8
:100100003C0334032C0324031C0314030C030403D7
:10011000FC02F402EC02E402DC02D402CC02C402CF
:10012000BC02B402AC02A4029C0294028C028402BF
:100130007C0274026C0264025C0254024C024402AF
:100140003C0234022C0224021C0214020C0204029F
:10015000FC01F401EC01E401DC01D401CC01C40197
:10016000BC01B401AC01A4019C0194018C01840187
:100170007C017401007E7E7E7E7E7E00007E7E7E1F
:100180007E7E7E00007E7E7E7E7E7E00007E7E7E87
:100190007E7E7E00000000000000000000000000E5
:1001A000000000000000000000000000000000004F
:1001B00000000000004242424224180000000000FB
:1001C000000000000000000000000000000000002F
:1001D000000000000000000000000000000000001F
:1001E000000000000000000000000000000000000F
:1001F00000000000000000000000000000000000FF
:1002000000000000000000000000000000000000EE
:1002100000000000000000000000000000000000DE
:1002200000000000000000000000000000000000CE
:1002300000000000007E407E7E404000007E407E48
:100240007E407E00007C424242427C00007E404074
:1002500040407E00007C427E7E427C00003C424268
:100260007E424200007E7E7E7E7E7E00007E7E7E1E
:100270007E7E7E00007E7E7E7E7E7E00007E7E7E96
:100280007E7E7E00007E7E7E7E7E7E00007E7E7E86
:100290007E7E7E00007E040810207E000042422404
:1002A0001818180000422418182442000042424244
:1002B0005A66420000424242422418000042424232
:1002C00042423C00007E101010101000003E402002
:1002D00008027C00007C42427C605800003C4242A4
:1002E000523C1C00007C42427C404000003C4242A8
:1002F00042423C00004262524A4642000042665A74
:10030000424242000040404040407E000048506071
:1003100060504800007E080808483000007E181829
:1003200018187E000042427E7E424200003C42405D
:100330004C423C00007E407E7E404000007E407E7D
:100340007E407E00007C424242427C00003E4040B3
:1003500040403E00007C427E7E427C00003C4242A7
:100360007E424200007E7E7E7E7E7E00007E7E7E1D
:100370007E7E7E00007E7E7E7E7E7E00007E7E7E95
:100380007E7E7E00007E7E7E7E7E7E00007E7E7E85
:100390007E7E7E000018180000181800003E423EC5
:1003A00002023C00003C423C3C423C00007E4204D5
:1003B00008102000003C40407C423C00007E407C15
:1003C00002027C00004040507C101000003C420CB7
:1003D0000C423C00003C420408103E000018280873
:1003E00008087E00003C242424243C00000408105B
:1003F000102040000000000000181800007E7E7EE3
:100400007E7E7E00007E7E7E7E7E7E00007E7E7E04
:100410007E7E7E00007E7E7E7E7E7E00007E7E7EF4
:100420007E7E7E00007E7E7E7E7E7E00007E7E7EE4
:100430007E7E7E00007E7E7E7E7E7E00007E7E7ED4
:100440007E7E7E00007E7E7E7E7E7E0000247E2478
:10045000247E240000282828000000000018181816
:1004600018001800000000000000000011241FBE4A
:10047000CFEFD8E0DEBFCDBF11E0A0E0B1E0EAE70A
:10048000F4E202C005900D92A439B107D9F721E03A
:10049000A4E9B1E001C01D92AD3FB207E1F70E94AF
:1004A000DA0D0C943B120C9400003F924F925F9235
:1004B0006F927F928F929F92AF92BF92CF92DF9274
:1004C000EF92FF920F931F93CF93DF93CDB7DEB7D9
:1004D000A3970FB6F894DEBF0FBECDBF86E0E4E170
:1004E000F1E0DE01549601900D928A95E1F7F12C2E
:1004F0008E010F5F1F4F84E4682E81E0782E94E612
:10050000892E912C2DE3C22E21E0D22EB4E04B2E69
:10051000CE014F960E9470078823A9F089A19AA165
:10052000009729F4FA94F7FE0EC0F12C0FC0813029
:100530009105D9F0029739F4F39482E08F1534F4E1
:10054000A2E0FA2E03C094E0F91691F0EF2DEE0F21
:10055000FF0BE00FF11F6389748945E080919501DD
:10056000909196010E94630B03C04F2CF4E0FF2E84
:1005700081E0481205C0EBE4EE2EE1E0FE2E7EC1E4
:1005800092E0491609F497C14110C2CF89E0E0EF2B
:10059000F1E0DE011B9601900D928A95E1F7E12CC6
:1005A000F12C3324339476E3A72E71E0B72E552433
:1005B0005A94CE014A960E947007882381F08C8D50
:1005C0009D8D009741F08130910539F0029739F403
:1005D00062E0562E04C0512C02C05524539487E08B
:1005E000E816F10430F7F701EC5CFF4F0C94060EAF
:1005F0008D85511007C090E0019668E170E00E947F
:10060000F20D0BC091E0591651F092E059120AC058
:10061000882311F0815001C087E18D8703C0EE244B
:10062000E394F12C8D851F928F938AE191E05FC056
:100630008C85511007C090E001966CE370E00E9439
:10064000F20D0BC091E0591651F092E059120AC018
:10065000882311F0815001C08BE38C8703C042E0F6
:10066000E42EF12C8C851F928F9381E291E03FC0A4
:100670008B85511007C090E001966CE370E00E94FA
:10068000F20D0BC091E0591651F092E059120AC0D8
:10069000882311F0815001C08BE38B8703C033E0C6
:1006A000E32EF12C8B851F928F9388E291E01FC07F
:1006B0008E85511007C090E0019667E070E00E94BF
:1006C000F20D0BC091E0591651F092E059120AC098
:1006D000882311F0815001C086E08E8703C024E09A
:1006E000E22EF12C8E851F928F938FE291E09F93E3
:1006F0008F933BC08F85511006C08F5F803208F406
:10070000F6C03F860FC091E0591649F092E05912A9
:1007100009C0813011F08150EAC08FE1E8C095E056
:10072000E92EF12C8F851F928F93BF92AF921DC03F
:100730008889511006C08F5F8D3008F4DAC0388A7E
:100740000FC091E0591649F092E0591209C081306A
:1007500011F08150CEC08CE0CCC086E0E82EF12CA8
:1007600088891F928F93DF92CF921F930F930E94DD
:10077000510F41E0B80180919501909196010E943E
:10078000630B0F900F900F900F900F900F900FCF63
:10079000511007C0898990E00196B4010E94F20DC2
:1007A00012C081E0581206C0CE010B960E94790D4E
:1007B000512C0CC092E0591207C08989882311F08E
:1007C000815001C083E6898B5524539489891F92F7
:1007D0008F937F926F921F930F930E94510F41E06E
:1007E000B80180919501909196010E94630B0F9042
:1007F0000F900F900F900F900F905110D8CE7BC09C
:100800008D859E85892B79F46091940170E06F5FEE
:100810007F4F6F707727609394018091950190913D
:1008200096010E940A0C8D859E85019771F5609155
:10083000940180919501909196010E940A0CB12C2F
:100840008D859E85029721F1809194011F928F934F
:10085000FF92EF921F930F930E94510F41E0B80156
:1008600080919501909196010E94630B0F900F90DB
:100870000F900F900F900F90BB20E9F1CE010B96D7
:100880000E9470078823A1F0BBCFBB24B394D8CFBC
:1008900060919401662311F0615001C06FE0609394
:1008A000940180919501909196010E940A0CCCCF01
:1008B000BB24B394C9CF1092EE011092ED01A39620
:1008C0000FB6F894DEBF0FBECDBFDF91CF911F9161
:1008D0000F91FF90EF90DF90CF90BF90AF909F90DF
:1008E0008F907F906F905F904F903F9008958F878B
:1008F00019CF888B35CFF42C09CE0F931F9380919D
:10090000A501882311F10E94B3060091A601109160
:10091000A7012091A8013091A901DC01CB01801B26
:10092000910BA20BB30B4E97A105B10570F080E0BF
:1009300090E00E943607882331F060E070E080E0AC
:1009400090E00E94C1071092A5018091A001882328
:1009500011F10E94B3060091A1011091A201209112
:10096000A3013091A401DC01CB01801B910BA20BF0
:10097000B30B4E97A105B10570F081E090E00E94A5
:100980003607882331F060E070E081E090E00E945B
:10099000C1071092A00180919B01882311F10E9450
:1009A000B30600919C0110919D0120919E01309110
:1009B0009F01DC01CB01801B910BA20BB30B4E9767
:1009C000A105B10570F082E090E00E94360788230F
:1009D00031F060E070E082E090E00E94C107109288
:1009E0009B018091EF018F5F8093EF01843630F09F
:1009F00080EF91E00E94030D1092EF011F910F9183
:100A000008950097A1F48091A50181113CC0672B46
:100A1000D1F581E08093A5010E94B3066093A60101
:100A20007093A7018093A8019093A9010895813044
:100A30009105A1F48091A001811125C0672B19F5C2
:100A400081E08093A0010E94B3066093A10170939E
:100A5000A2018093A3019093A4010895029799F4B1
:100A600080919B0181110FC0672B69F481E0809315
:100A70009B010E94B30660939C0170939D0180933B
:100A80009E0190939F01089560E288E00E948A0C85
:100A90009093960180939501892B11F480E008953D
:100AA0000E94EB0C8823D1F31092EF0180EF91E0CC
:100AB0000E94030D60E080919501909196010E9443
:100AC0000A0C0E944D0781E095E00E9424078DE703
:100AD00094E00E948D060E94AA0678941092EE017E
:100AE0001092ED0181E00895CF93DF93CDB7DEB78B
:100AF0002F970FB6F894DEBF0FBECDBF8EE5C82E80
:100B000081E0D82ECE0101967C0198E6A92E91E0D5
:100B1000B92ECE010B960E947007882359F18D855E
:100B20009E858130910549F48091ED019091EE010F
:100B3000892BD1F483E090E019C08D7F892BD1F40B
:100B40008091ED019091EE0101969093EE018093DA
:100B5000ED018091ED019091EE01039729F08091D4
:100B6000ED019091EE0102C080E090E09093EE01E3
:100B70008093ED018091ED019091EE01813091051E
:100B800021F148F08230910509F464C0039709F619
:100B90000E945502BECF8091F1011F928F938091E8
:100BA000F2011F928F93DF92CF92FF92EF920E94F9
:100BB000510F01E021E030E042E0B7018091950162
:100BC000909196010E944C0A66C08091F3010E94A8
:100BD000D10D45E0BC0180919501909196010E9454
:100BE000630B8091970190919801A0919901B09128
:100BF0009A01892B8A2B8B2B51F40E94B3066093A8
:100C00009701709398018093990190939A010E94A3
:100C1000B3060091970110919801209199013091AC
:100C20009A01DC01CB01801B910BA20BB30B8C3D15
:100C30009540A105B10508F46CCF1092EE01109219
:100C4000ED01109297011092980110929901109263
:100C50009A015FCF8091F6011F928F938091F501E9
:100C60001F928F938091F4011F928F93BF92AF9246
:100C7000FF92EF920E94510F01E021E030E042E04C
:100C8000B70180919501909196010E944C0A1092B3
:100C9000EE011092ED010FB6F894DEBF0FBECDBF8E
:100CA00038CF1F920F920FB60F9211242F933F93BC
:100CB0004F935F936F937F938F939F93AF93BF9364
:100CC000EF93FF93E091AE01F091AF01309709F0FF
:100CD00009958091AA019091AB01A091AC01B091CE
:100CE000AD010196A11DB11D8093AA019093AB01A6
:100CF000A093AC01B093AD01FF91EF91BF91AF9183
:100D00009F918F917F916F915F914F913F912F9123
:100D10000F900FBE0F901F90189524B52F7724BD0C
:100D200024B52F7B24BD24B5226024BD24B52E7F9D
:100D300024BD25B5277F25BD25B52B7F25BD25B530
:100D4000226025BD25B5216025BD9093AF0180931C
:100D5000AE01089516BC89EF87BDEEE6F0E0808114
:100D6000826080830895F8946091AA017091AB012C
:100D70008091AC019091AD017894089516BCEEE697
:100D8000F0E080818D7F808308951F920F920FB6CF
:100D90000F9211242F933F934F935F936F937F9301
:100DA0008F939F93AF93BF93CF93DF93EF93FF9373
:100DB000C9B1D091E801DC27E091E601F091E701AB
:100DC000309769F1D2FF0AC06C2F6695669581E075
:100DD0006827617070E080E090E00995D3FF0FC054
:100DE0006C2F66956695669581E068276170E09145
:100DF000E601F091E70170E081E090E00995D4FF11
:100E00000EC06C2F62956F7081E068276170E09171
:100E1000E601F091E70170E082E090E00995C0936F
:100E2000E801FF91EF91DF91CF91BF91AF919F9139
:100E30008F917F916F915F914F913F912F910F9083
:100E40000FBE0F901F901895529853985498EDE646
:100E5000F0E020812C612083E8E6F0E0208124602E
:100E600020839093E7018093E6010895009729F489
:100E700089B182FB882780F908958130910529F492
:100E800089B183FB882780F90895029721F489B1FD
:100E900082958170089580E00895E0EBF1E010867E
:100EA000359681E0E23EF807D1F71092B00110923A
:100EB000B10181E08093B2011092B3010895809155
:100EC000B001811108C08091B101811104C081E09D
:100ED0008093B20102C01092B2018091B2010895D4
:100EE0000F931F93CF93DF93EC010E945F07811153
:100EF00031C05091B001209771F11092B101009171
:100F0000B4011091B5016091B6017091B7014091A3
:100F1000B80120EB31E095E0851761F0F9013996D1
:100F2000D901149601900D929A95E1F78F5F2B5F8E
:100F30003F4FF1CF899FF0011124E055FE4F1086FD
:100F400081508093B001198308837B836A834C832B
:100F500081E001C080E0DF91CF911F910F91089552
:100F60008091B0018A3041F48091B101811104C0B7
:100F700081E08093B30102C01092B3018091B3016C
:100F800008950F931F93CF93DF938C01EB010E9481
:100F9000B007811113C08091B00195E0899FF001E5
:100FA0001124E055FE4F17830683D583C48391E057
:100FB00090878F5F8093B00181E001C080E0DF9176
:100FC000CF911F910F91089582E58CBD229A239AAB
:100FD000259A229A249808958EBD0DB407FEFDCF60
:100FE00008952A9A08952A9808950F931F93CF93EE
:100FF000DF93EC018C01060F111DC017D10721F002
:1010000089910E94EC07F9CFDF91CF911F910F9149
:10101000089584EA8093BC008091BC0087FFFCCFD8
:101020008091B900887F883051F08091B900887F25
:10103000803129F08091B900887F90E0089580E0A8
:1010400090E008958093BB0084E88093BC00809179
:10105000BC0087FFFCCF8091B900887F883151F0B8
:101060008091B900887F803429F08091B900887F11
:1010700090E0089580E090E0089527B1206327B9BB
:1010800028B1662311F0206301C02F7C28B927B155
:101090002F7C27B98130910531F018F0029729F0A3
:1010A000089588E403C088E101C08CE08093B80013
:1010B0000895FF920F931F93CF93DF93F82EEB01C8
:1010C000142F022F0E940908009759F58F2D0E94B6
:1010D0002208009731F5FE01412F50E034E8CF019E
:1010E0008C1B9D0B84179507ACF481918093BB00FA
:1010F0003093BC008091BC0087FFFCCF8091B90089
:10110000887F883261F32091B900287F822F90E098
:1011100031F307C0011103C084E98093BC0080E073
:1011200090E0DF91CF911F910F91FF9008950F9361
:101130001F93CF93DF93D82F8B01C42F0E940908F0
:10114000009709F041C08D2F81600E94220800970E
:10115000D9F5F8016C2F70E06150710924ECCF01D2
:10116000801B910B861797079CF42093BC008091FD
:10117000BC0087FFFCCF8091B900887F803521F0CB
:101180008091B900887F02C08091BB008193E7CF36
:10119000F801E60FF71F84E88093BC008091BC0043
:1011A00087FFFCCF8091B900887F883521F080913E
:1011B000B900887F02C08091BB00808384E980935E
:1011C000BC0020E090E001C0282F822FDF91CF915A
:1011D0001F910F910895FF920F931F93CF93DF9369
:1011E000FC01672B09F442C0F12C4F2D0F2C000C91
:1011F000550B828190E0481759070CF071C08A01A5
:1012000063E0000F111F6A95E1F7BA016F5F7F4F2E
:10121000A3E0660F771FAA95E1F720E030E0E80130
:10122000C20FD31FA581B681AC0FBD1F8C91880F53
:101230008C93828190E001974817590781F085814E
:101240009681C80FD91F820F931FDC01A60FB71F0D
:101250008C91881F8827881F9881892B88832F5F0E
:101260003F4F28303105D9F6F394BFCF928191508A
:1012700097FD36C0292F092E000C330B890183E01E
:10128000000F111F8A95E1F72150310943E0220F29
:10129000331F4A95E1F760E070E0E801C60FD71F01
:1012A000A581B681AC0FBD1F8C9186958C93992337
:1012B00089F045815681C40FD51F460F571FDA01AB
:1012C000A20FB31F4C9180E8489FA0011124888190
:1012D000482B48836F5F7F4F68307105F1F6C7CFA9
:1012E000DF91CF911F910F91FF900895DF92EF92C0
:1012F000FF920F931F93CF93DF93CDB7DEB70DB758
:101300001EB7FC017081D72EDD0C8DB79EB78D19ED
:1013100091090FB6F8949EBF0FBE8DBFEDB7FEB713
:1013200031967F0152E030E0832F880F7317C1F0B0
:1013300090E0EFEFE50FD701A80FB91F361307C0F4
:101340004C93C7018E0F911DFC01208306C01C9297
:10135000C7018E0F911DFC0110823F5F5E5FE4CFDD
:101360000E94F1076D2DC7010E94F5070E94F30747
:101370000FB6F8941EBF0FBE0DBFDF91CF911F9126
:101380000F91FF90EF90DF900895CF92DF92EF9250
:10139000FF920F931F93CF93DF937C01C0E06C010A
:1013A00082E0C80ED11CF7018281C817C8F4F8E0AA
:1013B000CF9F80011124D0E0DF5FD7011596ED911A
:1013C000FC911697E00FF11F20814D2F6C2FC60165
:1013D0000E9476090F5F1F4FD83071F7CF5FE3CFC0
:1013E000DF91CF911F910F91FF90EF90DF90CF9001
:1013F0000895FC014281F8E04F9FA001112460E0B4
:1014000070E0FC01858196810C944A0FFC014281B9
:10141000F8E04F9FA00111246FEF70E0FC0185817F
:1014200096810C944A0FCF93DF93A62FA695A6958D
:10143000A695B0E0E42FF0E0EC018D819E8170E094
:10144000AD01A3E0440F551FAA95E1F74E0F5F1FB2
:10145000FC01E40FF51F60957095677077272130C8
:10146000310541F401C0220F6A95EAF78081282BEB
:1014700020830FC081E090E001C0880F6A95EAF7F1
:10148000232B21F480959081892302C090818927A4
:101490008083DF91CF9108952F923F924F925F9278
:1014A0006F927F928F929F92AF92BF92CF92DF9274
:1014B000EF92FF920F931F93CF93DF93CDB7DEB7D9
:1014C0002D970FB6F894DEBF0FBECDBF7C016B0128
:1014D000842E3901FB0101900020E9F731972F019B
:1014E000461A570A0E94F90912E3819E400111240D
:1014F000A12CB12C120141E0241A3108B6E04B2E88
:10150000512C0E945F07811109C01092E9011092CD
:10151000EB011092EA011092EC01AAC0E091EA01FD
:10152000F091EB01EC0DFD1DE081F0E0EE0FFF1FEF
:10153000EA58FF4F6591749148E050E0CE01019662
:101540000E94410F4091EA015091EB0124163506AB
:1015500008F45FC08091E9018B87682F70E0F20189
:10156000E61BF70BFA87E987DE01119620E030E0F1
:10157000F7010580F681E02DFD87EC87F1E06F161D
:101580007104D1F4F70182818150F90118E0819F43
:10159000E00DF11D1124CF01EC85FD85E80FF91F49
:1015A0008C91082E000C990B098402C095958795A3
:1015B0000A94E2F7817013C0EC85FD85E20FF31FFA
:1015C0008C91082E000C990B062E02C095958795DC
:1015D0000A94E2F79695982F88279795879590819A
:1015E000892B80832F5F3F4F11962830310509F0FA
:1015F000BFCF1B851F5F173018F41093E9011FC080
:101600001092E9014F5F5F4F5093EB014093EA0165
:1016100016C08091EC018F5F8093EC01F70122816D
:1016200090E0F8E02F9F90011124281739073CF42F
:101630001092EC011092EB011092EA010150B301FB
:10164000C7010E94EB08C7010E94C509D501C4016A
:101650000097A105B10551F0EFE9FFE03197F1F7EF
:1016600000C000000197A109B109F2CF011149CFD3
:101670000E945F07811108C01092E9011092EB01EE
:101680001092EA011092EC01C7010E94F909C7010A
:101690000E94C5092D960FB6F894DEBF0FBECDBFD0
:1016A000DF91CF911F910F91FF90EF90DF90CF903E
:1016B000BF90AF909F908F907F906F905F904F9072
:1016C0003F902F9008955F926F927F928F929F929A
:1016D000AF92BF92CF92DF92EF92FF920F931F9340
:1016E000CF93DF93CDB7DEB728970FB6F894DEBF60
:1016F0000FBECDBF7C018B01542EFB010190002059
:10170000E9F731973F01661A770A0E94F909C12C5F
:10171000D12CCE0101965C014E0199E0890E911CFD
:10172000F7018281C81698F5D801ED918D01F0E09E
:10173000EE0FFF1FEA58FF4F6591749148E050E0AB
:10174000C5010E94410F9601332793E0220F331FFA
:101750009A95E1F7F5012A193B09C9018E0F9F1FE0
:10176000D70115964D915C911697DA01A80FB91F14
:101770008191880F990B9C91892B8C938E169F06D3
:1017800061F7BFEFCB1ADB0AC614D70448F210E0AA
:10179000151539F060E070E0C7010E94EB081F5F8B
:1017A000F7CFC7010E94C50928960FB6F894DEBF8F
:1017B0000FBECDBFDF91CF911F910F91FF90EF90A2
:1017C000DF90CF90BF90AF909F908F907F906F9061
:1017D0005F900895EF92FF920F931F93CF93DF9343
:1017E0008C01D62FC0E07C0182E0E80EF11CF801EC
:1017F0008281C81740F42D2F4CE06C2FC7010E9446
:101800007609CF5FF4CFDF91CF911F910F91FF90B9
:10181000EF900895EF92FF920F931F93CF93DF9372
:101820008C01D62FC0E07C0182E0E80EF11CF801AB
:101830008281C81740F42D2F4AE06C2FC7010E9407
:101840007609CF5FF4CFDF91CF911F910F91FF9079
:10185000EF900895EF92FF920F931F93CF93DF9332
:101860008C01D62FC0E07C0182E0E80EF11CF8016B
:101870008281C81740F42D2F49E06C2FC7010E94C8
:101880007609CF5FF4CFDF91CF911F910F91FF9039
:10189000EF900895EF92FF920F931F93CF93DF93F2
:1018A0008C01D62FC0E07C0182E0E80EF11CF8012B
:1018B0008281C81740F42D2F4BE06C2FC7010E9486
:1018C0007609CF5FF4CFDF91CF911F910F91FF90F9
:1018D000EF900895EF92FF920F931F93CF93DF93B2
:1018E0008C01D62FC0E07C0182E0E80EF11CF801EB
:1018F0008281C81740F42D2F4FE06C2FC7010E9442
:101900007609CF5FF4CFDF91CF911F910F91FF90B8
:10191000EF9008950F931F93CF93DF93082F162F07
:101920000E94E40787E090E00E94200EEC01892BE2
:1019300019F480E090E04AC0188309831695169543
:1019400016951B830695069506950C83109F002D12
:1019500011240A8388E0089F80011124C8010E9495
:10196000200E9E838D83009721F3A80160E070E034
:101970000E944A0F61E0CE010E94EA0B60E0CE01B6
:101980000E942A0C67E0CE010E944A0C61E0CE0161
:101990000E946A0C80E090E001968536910539F04E
:1019A000EFE9FFE03197F1F700C00000F5CF60E00C
:1019B000CE010E946A0C60E0CE010E940A0CCE01AA
:1019C0000E94F909CE010E94C509CE01DF91CF9195
:1019D0001F910F910895CF93DF931F92CDB7DEB77C
:1019E000198261E082E090E00E943D0820E041E041
:1019F000BE016F5F7F4F80ED0E94590881E00F901C
:101A0000DF91CF9108950F931F93CF93DF93CDB7BD
:101A1000DEB728970FB6F894DEBF0FBECDBF8C019E
:101A2000188621E041E0BE01685F7F4F80ED0E9493
:101A3000590847E0BE016F5F7F4F80ED0E94970815
:101A40008981982F92959F708F702AE0929F800DC8
:101A50001124F80180838A81982F92959F708F704E
:101A6000FAE09F9F800D1124F80181838B81982FCC
:101A700092959F708F70FAE09F9F800D1124F8015E
:101A800082838C81982F92959F708F70FAE09F9F30
:101A9000800D1124F80183838D81982F92959F707A
:101AA0008F70FAE09F9F800D1124F80184838E814E
:101AB000982F92959F708F70FAE09F9F800D112450
:101AC000F80185838F81982F92959F708F70FAE02F
:101AD0009F9F800D1124F801868381E028960FB620
:101AE000F894DEBF0FBECDBFDF91CF911F910F9154
:101AF0000895CF93DF93CDB7DEB728970FB6F8944C
:101B0000DEBF0FBECDBFFC01198280812AE0622FAB
:101B10000E94E60D30E1839F900D11249A8381810C
:101B20000E94E60D30E1839F900D11249B838281FA
:101B30000E94E60D30E1839F900D11249C838381E8
:101B40000E94E60D30E1839F900D11249D838481D6
:101B50000E94E60D30E1839F900D11249E838581C4
:101B60000E94E60D30E1839F900D11249F838681B2
:101B70000E94E60D20E1829F900D1124988720E0BD
:101B800048E0BE016F5F7F4F80ED0E94590881E001
:101B900028960FB6F894DEBF0FBECDBFDF91CF9170
:101BA0000895E82FF0E0EE0FFF1FE050FF4F808117
:101BB000918108950E944405882329F00E947405AC
:101BC00080E090E008958FEF9FEF0895991B79E0F2
:101BD00004C0991F961708F0961B881F7A95C9F7BD
:101BE0008095089597FB072E16F4009407D077FD93
:101BF00009D00E940C0E07FC05D03EF4909581950B
:101C00009F4F0895709561957F4F0895EE0FFF1FC8
:101C10000590F491E02D0994AA1BBB1B51E107C06C
:101C2000AA1FBB1FA617B70710F0A61BB70B881F6C
:101C3000991F5A95A9F780959095BC01CD010895FB
:101C40000F931F93CF93DF938230910510F482E0BE
:101C500090E0E091FB01F091FC0120E030E0A0E099
:101C6000B0E0309719F1408151810281138148170A
:101C70005907C8F08417950769F4109731F0129648
:101C80000C93129713961C9327C00093FB0110939B
:101C9000FC0122C02115310519F04217530718F431
:101CA0009A01BD01EF01DF01F801DBCF21153105FC
:101CB000F9F0281B390B2430310580F48A819B818F
:101CC0006115710521F0FB019383828304C0909319
:101CD000FC018093FB01FE01329644C0FE01E20F3D
:101CE000F31F8193919322503109398328833AC09D
:101CF0002091F9013091FA01232B41F42091100138
:101D0000309111013093FA012093F90120910E01D5
:101D100030910F012115310541F42DB73EB74091A7
:101D2000120150911301241B350BE091F901F09140
:101D3000FA01E217F307A0F42E1B3F0B281739070F
:101D400078F0AC014E5F5F4F2417350748F04E0F17
:101D50005F1F5093FA014093F9018193919302C060
:101D6000E0E0F0E0CF01DF91CF911F910F91089556
:101D7000CF93DF93009709F481C0FC01329713825F
:101D80001282A091FB01B091FC01109781F4208197
:101D90003181820F931F2091F9013091FA012817A8
:101DA000390751F5F093FA01E093F90167C0ED01AD
:101DB00020E030E0CE17DF0740F44A815B819E01CE
:101DC00041155105F1F0EA01F5CFD383C28340817B
:101DD0005181840F951FC817D90759F488819981BB
:101DE000840F951F0296918380838A819B819383C0
:101DF00082832115310529F4F093FC01E093FB0166
:101E00003DC0E901FB83EA8349915991C40FD51F75
:101E1000EC17FD0761F480819181840F951F029674
:101E2000E90199838883828193819B838A83E0E09F
:101E3000F0E012968D919C911397009719F0FD0197
:101E4000DC01F7CF8D919C9111979D012E5F3F4F43
:101E5000820F931F2091F9013091FA012817390759
:101E600069F4309729F41092FC011092FB0102C032
:101E700013821282B093FA01A093F901DF91CF91FE
:101E80000895FB01DC0102C005900D9241505040C5
:101E9000D8F70895DC0101C06D9341505040E0F740
:101EA0000895AEE0B0E0E7E5FFE00C9412120D8972
:101EB0001E8986E08C831A8309838FEF9FE79E83B8
:101EC0008D83AE01475E5F4F6F89788DCE0101969D
:101ED0000E94730FEF81F885E00FF11F10822E969C
:101EE000E4E00C942E12ABE0B0E0E9E7FFE00C94E4
:101EF00004126C017B018A01FC0117821682838126
:101F000081FFCCC1CE0101963C01F6019381F7011E
:101F100093FD859193FF81917F01882309F4BAC1D4
:101F2000853239F493FD859193FF81917F0185324C
:101F300029F4B60190E00E946A11E7CF912C212C80
:101F4000312CFFE1F315D8F08B3279F038F4803280
:101F500079F08332A1F4232D20611DC08D3261F010
:101F6000803369F4232D216016C0832D8260382EC2
:101F7000E32DE4603E2E2AC0F32DF8601DC037FC2F
:101F80002DC020ED280F2A3040F08E32B9F436FCF7
:101F900081C1232D2064322E19C036FE06C08AE08E
:101FA000989E200D1124922E11C0EAE02E9E200D45
:101FB0001124222EF32DF0623F2E08C08C3621F41E
:101FC000832D8068382E02C0883641F4F70193FDD6
:101FD000859193FF81917F018111B3CF982F9F7DD0
:101FE0009554933028F40C5F1F4F9FE399830DC0E5
:101FF000833631F0833771F0833509F059C021C041
:10200000F801808189830E5F1F4F88248394912C6F
:10201000530113C02801F2E04F0E511CF801A080BB
:10202000B18036FE03C0692D70E002C06FEF7FEF14
:10203000C5010E945F114C018201F32DFF773F2EF5
:1020400016C0280122E0420E511CF801A080B18088
:1020500036FE03C0692D70E002C06FEF7FEFC5014F
:102060000E9454114C01F32DF0683F2E820133FC85
:102070001BC0822D90E088169906B0F4B60180E26C
:1020800090E00E946A112A94F4CFF50137FC859103
:1020900037FE81915F01B60190E00E946A11211024
:1020A0002A9421E0821A91088114910471F7E8C002
:1020B000843611F0893641F5F80137FE07C060819A
:1020C0007181828193810C5F1F4F08C06081718193
:1020D000072E000C880B990B0E5F1F4FF32DFF7618
:1020E0003F2E97FF09C090958095709561957F4F21
:1020F0008F4F9F4FF0683F2E2AE030E0A3010E94EF
:10210000A611882E861845C0853731F4232D2F7EE1
:10211000B22E2AE030E025C0932D997FB92E8F365C
:10212000C1F018F4883579F0B5C0803719F08837D8
:1021300021F0B0C0E92FE061BE2EB4FE0DC0FB2D32
:10214000F460BF2E09C034FE0AC0292F2660B22ECB
:1021500006C028E030E005C020E130E002C020E108
:1021600032E0F801B7FE07C06081718182819381FE
:102170000C5F1F4F06C06081718180E090E00E5FB0
:102180001F4FA3010E94A611882E8618FB2DFF77F2
:102190003F2E36FE0DC0232D2E7FA22E891458F41B
:1021A00034FE0BC032FC09C0832D8E7EA82E05C0E4
:1021B000B82CA32C03C0B82C01C0B92CA4FE0FC0AE
:1021C000FE01E80DF11D8081803321F49A2D997E66
:1021D000A92E09C0A2FE06C0B394B39404C08A2DF0
:1021E000867809F0B394A3FC11C0A0FE06C0B21417
:1021F00088F4280C922C9B180EC0B21460F4B6011F
:1022000080E290E00E946A11B394F7CFB21418F400
:102210002B1802C0982C212CA4FE10C0B60180E31C
:1022200090E00E946A11A2FE17C0A1FC03C088E7DB
:1022300090E002C088E590E0B6010CC08A2D867857
:1022400059F0A1FE02C08BE201C080E2A7FC8DE242
:10225000B60190E00E946A11891438F4B60180E357
:1022600090E00E946A119A94F7CF8A94F301E80DE6
:10227000F11D8081B60190E00E946A118110F5CFB6
:10228000222009F442CEB60180E290E00E946A1159
:102290002A94F6CFF6018681978102C08FEF9FEFD7
:1022A0002B96E2E10C942012FC01059061507040E5
:1022B0000110D8F7809590958E0F9F1F0895FC010F
:1022C0006150704001900110D8F7809590958E0F65
:1022D0009F1F08950F931F93CF93DF93FB012381DB
:1022E00021FD03C08FEF9FEF2CC022FF16C0468157
:1022F0005781248135814217530744F4A081B1816D
:102300009D012F5F3F4F318320838C93268137813E
:102310002F5F3F4F3783268314C08B01EC01FB01F5
:102320000084F185E02D0995892BE1F6D8011696F8
:102330008D919C911797019617969C938E93169763
:10234000CE01DF91CF911F910F910895FA01AA2735
:10235000283051F1203181F1E8946F936E7F6E5FE8
:102360007F4F8F4F9F4FAF4FB1E03ED0B4E03CD096
:10237000670F781F891F9A1FA11D680F791F8A1F79
:10238000911DA11D6A0F711D811D911DA11D20D0E0
:1023900009F468943F912AE0269F11243019305D9A
:1023A0003193DEF6CF010895462F4770405D41938B
:1023B000B3E00FD0C9F7F6CF462F4F70405D4A33D8
:1023C00018F0495D31FD4052419302D0A9F7EACFA0
:1023D000B4E0A6959795879577956795BA95C9F7CF
:1023E00000976105710508959B01AC010A2E0694C2
:1023F0005795479537952795BA95C9F7620F731F7B
:10240000841F951FA01D08952F923F924F925F92B7
:102410006F927F928F929F92AF92BF92CF92DF92F4
:10242000EF92FF920F931F93CF93DF93CDB7DEB759
:10243000CA1BDB0B0FB6F894DEBF0FBECDBF0994ED
:102440002A88398848885F846E847D848C849B8444
:10245000AA84B984C884DF80EE80FD800C811B8152
:10246000AA81B981CE0FD11D0FB6F894DEBF0FBE81
:0A247000CDBFED010895F894FFCFF1
:10247A0077017B017F01830187018B018F010000B6
:10248A00FD012000520156015A01483A25303264B2
:10249A00004D3A2530326400533A253032640057F1
:1024AA003A2530326400444425303264004D4D25CB
:1024BA003032640059592530326400425425303292
:1024CA006400534554004252540045585400253084
:1024DA0032643A2530326400253032642F25303296
:1024EA00642F253032640053554E004D4F4E005430
:1024FA005545005745440054485500465249005333
:04250A004154000038
:00000001FF
